:020000040800F2
:10000000404C0020550A00085D0A00085F0A0008FD
:10001000610A0008630A0008650A00080000000081
:10002000000000000000000000000000910900082E
:10003000690A000800000000290A0008390A0008BF
:100040006F0A00086F0A00086F0A00086F0A0008AC
:100050006F0A00086F0A00086F0A00086F0A00089C
:100060006F0A00086F0A0008619D00086F0A000807
:100070006F0A00086F0A00086F0A00086F0A00087C
:100080006F0A00086F0A00086F0A00087D840008E4
:100090004D8400086F0A00086F0A00086F0A000804
:1000A0006F0A00086F0A00086F0A00086F0A00084C
:1000B0006F0A00086F0A00086F0A00086F0A00083C
:1000C0006F0A00086F0A00086F0A00086F0A00082C
:1000D0006F0A0008B9C800086F0A00086F0A000814
:1000E0006F0A00086F0A00086F0A00086F0A00080C
:1000F0006F0A00086F0A00086F0A00086F0A0008FC
:100100006F0A00086F0A00086F0A00086F0A0008EB
:100110006F0A00086F0A00086F0A00086F0A0008DB
:100120006F0A00086F0A00086F0A00086F0A0008CB
:100130006F0A00080000000000000000C1840008F1
:100140006F0A0008998400086F0A00086F0A000807
:100150006F0A00086F0A00086F0A000891C90008BA
:100160006F0A00086F0A00086F0A00086F0A00088B
:100170006F0A00086F0A000800000000000000007D
:100180006F0A00086F0A000800F002F800F0B8F8E3
:100190000AA090E8000C82448344AAF10107DA45E2
:1001A00001D100F0ADF8AFF2090EBAE80F0013F07C
:1001B000010F18BFFB1A43F0010318471C6501002B
:1001C0003C6501000A444FF0000C10F8013B13F0AD
:1001D000070408BF10F8014B1D1108BF10F8015BA0
:1001E000641E05D010F8016B641E01F8016BF9D193
:1001F00013F0080F1EBF10F8014BAD1C0C1B09D1EA
:100200006D1E58BF01F801CBFAD505E014F8016B5B
:1002100001F8016B6D1EF9D59142D6D370470000ED
:100220000023002400250026103A28BF78C1FBD8FF
:10023000520728BF30C148BF0B6070476E2906F0D7
:10024000F581702906F03783662915F09E806529AF
:1002500015F09B80672915F09880612915F097802B
:1002600003681B0A28BF41F08001692906F0A281BA
:10027000642906F09F81752906F09C816F2906F09C
:10028000C482782906F00383E92906F05F82E42915
:1002900006F05C82F52906F05982EF2906F0C1824A
:1002A000F82906F002830368DB0928BF41F08001CA
:1002B000632907F07381732907F07881E32907F038
:1002C0008381F32907F08881002070471FB515F05E
:1002D0000EF89DE8030007F06FFA07F050FA0400EB
:1002E0000020002114F03AF9401C60600020002139
:1002F00014F01EF9E0601FBD10B507F011FC10BD31
:1003000007F00BFA114603B40EF06AFA03BCFFF7CC
:10031000DDFF10F051FE07F075FB03B4FFF7ECFFB3
:1003200003BC07F033FC00000246D2E84F0FC2E8DE
:10033000431F03B1F9E77047024652E8000F40EA55
:10034000010042E8000303B1F7E7704710B5024629
:1003500052E8000F20EA010442E8004303B1F7E746
:1003600010BD10B5024652E8000F00EA01048C42AD
:1003700003D0BFF32F8F002010BD20EA010442E814
:10038000004303B1EFE710BD10B5024652E8000F7D
:10039000084203D1BFF32F8F002010BD20EA0104D3
:1003A00042E8004303B1F1E710BD024652E8000FF6
:1003B000411C42E8001303B1F8E7704710B502464C
:1003C000D2E85F0F814202D8BFF32F8F10BD441CCB
:1003D000C2E8534F03B1F3E710BD10B50246D2E8AF
:1003E0005F0F441CA14200D80024C2E8534F03B160
:1003F000F5E710BD024652E8000F411E42E8001327
:1004000003B1F8E77047024652E8000F10B9BFF396
:100410002F8F7047411E42E8001303B1F4E7704785
:100420000246D2E85F0F10B9BFF32F8F7047411E0D
:10043000C2E8531F03B1F4E77047024652E8000FC9
:1004400010B9BFF32F8F7047016842E8001303B162
:10045000F4E7704702680A60BFF35F8F50E8002F2F
:100460000B689342F6D140E8001303B1F2E77047FE
:100470000246D2E84F0FC2E8431F03B1F9E77047C5
:10048000024652E8000F40EA010042E8000303B1CF
:10049000F7E7704710B5024652E8000F20EA010462
:1004A00042E8004303B1F7E710BD10B5024652E839
:1004B000000F00EA01048C4203D0BFF32F8F00200D
:1004C00010BD20EA010442E8004303B1EFE710BD8C
:1004D00010B5024652E8000F084203D1BFF32F8F38
:1004E000002010BD20EA010442E8004303B1F1E717
:1004F00010BD024652E8000F411C42E8001303B150
:10050000F8E7704710B50246D2E85F0F814202D883
:10051000BFF32F8F10BD441CC2E8534F03B1F3E764
:1005200010BD10B50246D2E85F0F441CA14200D8AE
:100530000024C2E8534F03B1F5E710BD024652E86C
:10054000000F411E42E8001303B1F8E7704702466E
:1005500052E8000F10B9BFF32F8F7047411E42E8D9
:10056000001303B1F4E770470246D2E85F0F10B9F9
:10057000BFF32F8F7047411EC2E8531F03B1F4E74A
:100580007047024652E8000F10B9BFF32F8F704733
:10059000016842E8001303B1F4E7704702680A609B
:1005A000BFF35F8F50E8002F0B689342F6D140E80D
:1005B000001303B1F2E770470246D2E84F0FC2E8DA
:1005C000431F03B1F9E77047024652E8000F40EAC3
:1005D000010042E8000303B1F7E7704710B5024697
:1005E00052E8000F20EA010442E8004303B1F7E7B4
:1005F00010BD10B5024652E8000F00EA01048C421B
:1006000003D0BFF32F8F002010BD20EA010442E881
:10061000004303B1EFE710BD10B5024652E8000FEA
:10062000084203D1BFF32F8F002010BD20EA010440
:1006300042E8004303B1F1E710BD024652E8000F63
:10064000411C42E8001303B1F8E7704710B50246B9
:10065000D2E85F0F814202D8BFF32F8F10BD441C38
:10066000C2E8534F03B1F3E710BD10B50246D2E81C
:100670005F0F441CA14200D80024C2E8534F03B1CD
:10068000F5E710BD024652E8000F411E42E8001394
:1006900003B1F8E77047024652E8000F10B9BFF304
:1006A0002F8F7047411E42E8001303B1F4E77047F3
:1006B0000246D2E85F0F10B9BFF32F8F7047411E7B
:1006C000C2E8531F03B1F4E77047024652E8000F37
:1006D00010B9BFF32F8F7047016842E8001303B1D0
:1006E000F4E7704702680A60BFF35F8F50E8002F9D
:1006F0000B689342F6D140E8001303B1F2E770476C
:100700000246D2E84F0FC2E8431F03B1F9E7704732
:10071000024652E8000F40EA010042E8000303B13C
:10072000F7E7704710B5024652E8000F20EA0104CF
:1007300042E8004303B1F7E710BD10B5024652E8A6
:10074000000F00EA01048C4203D0BFF32F8F00207A
:1007500010BD20EA010442E8004303B1EFE710BDF9
:1007600010B5024652E8000F084203D1BFF32F8FA5
:10077000002010BD20EA010442E8004303B1F1E784
:1007800010BD024652E8000F411C42E8001303B1BD
:10079000F8E7704710B50246D2E85F0F814202D8F1
:1007A000BFF32F8F10BD441CC2E8534F03B1F3E7D2
:1007B00010BD10B50246D2E85F0F441CA14200D81C
:1007C0000024C2E8534F03B1F5E710BD024652E8DA
:1007D000000F411E42E8001303B1F8E770470246DC
:1007E00052E8000F10B9BFF32F8F7047411E42E847
:1007F000001303B1F4E770470246D2E85F0F10B967
:10080000BFF32F8F7047411EC2E8531F03B1F4E7B7
:100810007047024652E8000F10B9BFF32F8F7047A0
:10082000016842E8001303B1F4E7704702680A6008
:10083000BFF35F8F50E8002F0B689342F6D140E87A
:10084000001303B1F2E770470246D2E84F0FC2E847
:10085000431F03B1F9E77047024652E8000F40EA30
:10086000010042E8000303B1F7E7704710B5024604
:1008700052E8000F20EA010442E8004303B1F7E721
:1008800010BD10B5024652E8000F00EA01048C4288
:1008900003D0BFF32F8F002010BD20EA010442E8EF
:1008A000004303B1EFE710BD10B5024652E8000F58
:1008B000084203D1BFF32F8F002010BD20EA0104AE
:1008C00042E8004303B1F1E710BD024652E8000FD1
:1008D000411C42E8001303B1F8E7704710B5024627
:1008E000D2E85F0F814202D8BFF32F8F10BD441CA6
:1008F000C2E8534F03B1F3E710BD10B50246D2E88A
:100900005F0F441CA14200D80024C2E8534F03B13A
:10091000F5E710BD024652E8000F411E42E8001301
:1009200003B1F8E77047024652E8000F10B9BFF371
:100930002F8F7047411E42E8001303B1F4E7704760
:100940000246D2E85F0F10B9BFF32F8F7047411EE8
:10095000C2E8531F03B1F4E77047024652E8000FA4
:1009600010B9BFF32F8F7047016842E8001303B13D
:10097000F4E7704702680A60BFF35F8F50E8002F0A
:100980000B689342F6D140E8001303B1F2E77047D9
:100990001EF0040F0CBFEFF30880EFF309808169AC
:1009A00011F8021C91BB01B590E80F10E047BDE8BB
:1009B00000508CE80300244B93E80600914208BFE6
:1009C000704741B91EF0100F10D12049086820F07F
:1009D000010008600AE02CE9F00F1EF0100F08BFBC
:1009E0002CED108AC1F838C081F822E01A6092F824
:1009F0002210906B61F0FF0E1EF0100F08BFB0ECDC
:100A0000108AB0E8F00F80F309887047104A136825
:100A10009942FAD801B552F821C00FC8E047BDE8A5
:100A20000050CCF80000704701B511F04FFFBDE851
:100A30000140EFF3098CBEE701B512F051FABDE8B1
:100A40000140EFF3098CB6E79828002034EF00E06E
:100A50008C6301080948804709480047FEE7FEE724
:100A6000FEE7FEE7FEE7FEE7FEE7FEE7FEE7FEE75E
:100A700004480549054A064B7047000069C1000853
:100A80008901000840460020404C002040480020DA
:100A900040480020FE4880ED3A0A70472DE9F047B3
:100AA000DFF8EC9300262DED0A8B0446B0EE408A69
:100AB000F0EE608A884635463746D9F8AC0014F027
:100AC00018F853EC182B14F03FF86FD3D9F8B00096
:100AD00014F00FF853EC182B14F070F9F5D3B4F9A7
:100AE0000000B4F90610401A14F003F853EC182B68
:100AF00014F02AF800D20126B4F90E00B4F914104B
:100B0000401A13F0F6FF53EC182B14F01DF800D226
:100B1000761CB4F91C00B4F92210401A13F0E9FF56
:100B200053EC182B14F010F800D2761C9FEDD90B63
:100B3000012E3BDC53EC102B51EC180B14F040F859
:100B40008946064649EC180BB4F90000B4F90610C2
:100B5000401A13F0CEFF53EC182B14F02FF900D2EB
:100B60000125B4F90E00B4F9141049EC186B401AC1
:100B700013F0BFFF53EC182B14F020F900D26D1CBA
:100B8000B4F91C00B4F9221049EC186B401A13F0A8
:100B9000B0FF53EC182B14F011F900D26D1C002D8E
:100BA00005DD0220BDEC0A8BBDE8F08765E000267C
:100BB0009FEDBACB06EB460904EB8905B5F90A00AF
:100BC00013F097FF98ED048B53EC182B14F004FAF4
:100BD00041EC190BB5F9040013F08BFF53EC182B03
:100BE00014F0FAF953EC192B13F0EAFF41EC190B4E
:100BF000B5F9080013F07DFF98ED028B53EC182B2C
:100C000014F0EAF941EC1A0BB5F9020013F071FF88
:100C100053EC182B14F0E0F953EC1A2B13F0D0FF1F
:100C200041EC1A0BB5F9060013F063FF98ED008B49
:100C300053EC182B14F0D0F941EC1B0B34F92900BC
:100C400013F057FF53EC182B14F0C6F953EC1B2B81
:100C500013F0B6FF53EC1A2B13F0D4FC53EC192B02
:100C600013F0D0FC53EC1C2B13F06EFF00D27F1C52
:100C7000761C032E9EDB022F01DA012092E7002072
:100C800090E788490A684B68D00180EAD20080EA80
:100C9000031048608B68520380EAC30382EA531250
:100CA000520282EAD0208B600860704710B52DEDAB
:100CB000048BF0EE408AFFF7E4FF00EE100AB8EE76
:100CC000400ADFED790A20EE200A9FED789A20EEA7
:100CD000090A0CF069FCB0EE408AFFF7D2FF00EE83
:100CE000100AB8EE400A20EE090AB5EEC00AF1EE8D
:100CF00010FA01D1B7EE000A10EE100A14F056FAFD
:100D000041EC100B0CF004FD9FED691B51EC100B36
:100D100053EC112B13F054FF13F042FC00EE100AB9
:100D20000CF0DDFF20EE280A20EE080ABDEC048B53
:100D300010BD2DE9F04105462DED048BB0EE608A23
:100D4000F0EE408A0F4618EE100A14F02FFA97EDD5
:100D5000301B53EC112B13F033FF41EC190B18EE41
:100D6000900A14F023FA95ED301B53EC112B13F07D
:100D700027FF53EC192B13F045FC0024C5E9300183
:100D800018EE100A14F012FA07EBC40898ED001BD5
:100D900053EC112B13F014FF41EC190B18EE900AD1
:100DA00014F004FA05EBC40696ED001B53EC112B6E
:100DB00013F006FF53EC192B13F024FCC6E90001D5
:100DC00018EE100A14F0F2F998ED241B53EC112BD5
:100DD00013F0F6FE41EC190B18EE900A14F0E6F948
:100DE00096ED241B53EC112B13F0EAFE53EC192B58
:100DF00013F008FC641CC6E92401062CC0DB0024A7
:100E000018EE100A14F0D2F941EC100B07EBC400F5
:100E100090ED121B51EC100B53EC112B13F0D0FE84
:100E200041EC190B18EE900A14F0C0F905EBC4065A
:100E300096ED121B53EC112B13F0C2FE53EC192B41
:100E400013F0E0FB641CC6E91201092CD8DB002476
:100E500018EE100A14F0AAF941EC100B07EBC400CD
:100E600090ED0C1B51EC100B53EC112B13F0A8FE62
:100E700041EC190B18EE900A14F098F905EBC40632
:100E800096ED0C1B53EC112B13F09AFE14E00000AE
:100E9000C0380020000000000000044000000000F6
:100EA0000000000074280020DB0FC9400000802FE4
:100EB00000000000000000C053EC192B13F0A2FB4F
:100EC000641CC6E90C01032CC2DBBDEC048BBDE83D
:100ED000F0812DE9F04F04462DED068B83B00D46D1
:100EE000086813F006FE41EC1A0B686813F001FE67
:100EF00041EC190BA86813F0FCFD41EC180B94EDC4
:100F0000300B9FEDFE1B51EC100B53EC112B13F02B
:100F100079FBC4E9300194ED0C0B53EC1A2B51EC26
:100F2000100B13F06FFBC4E90C0194ED0E0B53ECA6
:100F3000192B51EC100B13F065FBC4E90E0194ED75
:100F4000100B53EC182B51EC100B13F05BFBC4E9A6
:100F5000100153EC1A2B51EC1A0B13F031FE0291D5
:100F600094ED001B064653EC112B13F04BFBC4E928
:100F7000000153EC192B51EC1A0B13F021FE89469A
:100F800049EC100B94ED021B054653EC112B51EC70
:100F9000100B13F037FBC4E9020153EC182B51EC92
:100FA0001A0B13F00DFE8B464BEC100B94ED041B4B
:100FB000804653EC112B51EC100B13F023FBC4E9CA
:100FC000040153EC192B51EC190B13F0F9FD0191AD
:100FD00094ED061B074653EC112B13F013FBC4E9E9
:100FE000060153EC182B51EC190B13F0E9FD00919D
:100FF00094ED081B824653EC112B13F003FBC4E95C
:10100000080153EC182B51EC180B13F0D9FD94ED9B
:101010000A1B53EC112B13F0F5FAC4E90A010299EB
:1010200053EC1A2B41EC106B51EC100B13F0C8FD74
:1010300094ED121B53EC112B13F0E4FA49EC105B06
:10104000C4E9120153EC192B51EC100B13F0B8FD4D
:1010500094ED141B53EC112B13F0D4FA4BEC108BC2
:10106000C4E9140153EC182B51EC100B13F0A8FD3C
:1010700094ED161B53EC112B13F0C4FA49EC105BE2
:10108000C4E9160153EC1A2B51EC100B13F098FD28
:1010900094ED181B53EC112B13F0B4FAC4E91801AA
:1010A000019953EC192B41EC107B51EC100B13F010
:1010B00087FD94ED1A1B53EC112B13F0A3FAC4E92E
:1010C0001A010099554641EC10AB0E4653EC182B13
:1010D00051EC100B13F074FD94ED1C1B53EC112B11
:1010E00013F090FAC4E91C0153EC1A2B51EC180BC5
:1010F00013F066FD53EC1A2B13F062FD94ED1E1BEA
:1011000053EC112B13F07EFA46EC105BC4E91E0180
:1011100053EC192B51EC100B13F052FD94ED201BE6
:1011200053EC112B13F06EFAC4E9200153EC182B89
:1011300051EC180B13F044FD894649EC100B07469F
:1011400053EC182B51EC100B13F03AFD94ED221BCD
:1011500053EC112B13F056FAC4E9220153EC1A2B6D
:1011600051EC1A0B13F02CFD884648EC100B054689
:1011700053EC1A2B51EC100B13F022FD53EC1A2BED
:1011800013F01EFD94ED241B53EC112B13F03AFACF
:10119000C4E9240153EC192B51EC190B13F010FD89
:1011A0008A464AEC100B064653EC192B51EC100BF7
:1011B00013F006FD53EC192B13F002FD94ED261BE2
:1011C00053EC112B13F01EFA49EC107BC4E92601F5
:1011D00053EC182B51EC100B13F0F2FC53EC182BC2
:1011E00013F0EEFC94ED281B53EC112B13F00AFACC
:1011F00048EC105BC4E9280153EC192B51EC100B9F
:1012000013F0DEFC53EC192B13F0DAFC94ED2A1BDF
:1012100053EC112B13F0F6F948EC105BC4E92A01EA
:1012200053EC182B51EC100B13F0CAFC53EC182B99
:1012300013F0C6FC94ED2C1B53EC112B13F0E2F9C8
:101240004AEC106BC4E92C0153EC182B51EC100B39
:1012500013F0B6FC53EC182B13F0B2FC94ED2E1BDC
:1012600053EC112B13F0CEF9C4E92E0103B0BDEC01
:10127000068BBDE8F08F2DE9F04F93462DED108BD6
:101280000D46044693B090ED0CEB53EC1E2B51EC45
:101290001E0B13F095FC94ED000B41EC190B8DED3A
:1012A000080B94ED308B53EC102B51EC180B13F012
:1012B00087FC53EC192B13F08FFE94ED0EDB41EC01
:1012C0001F0B53EC1D2B51EC1D0B13F079FC94ED0F
:1012D000060B41EC190B8DED060B53EC102B51EC6A
:1012E000180B13F06DFC53EC192B13F075FE41EC49
:1012F000100B8DED040B94ED10CB03E0000000000B
:101300000000F03F53EC1C2B51EC1C0B13F058FC6D
:1013100094ED0A0B41EC190B8DED020B53EC102BE5
:1013200051EC180B13F04CFC53EC192B13F054FE3A
:1013300041EC110B53EC1D2B8DED001B51EC1E0BE2
:1013400013F03EFC94ED020B41EC190B53EC102B07
:1013500051EC180B13F034FC53EC192B13F03CFE3A
:1013600041EC1B0B53EC1C2B51EC1E0B13F028FC17
:1013700094ED040B41EC190B53EC102B51EC180BB2
:1013800013F01EFC53EC192B13F026FE41EC1A0B44
:1013900053EC1C2B51EC1D0B13F012FC94ED080BBD
:1013A00041EC190B53EC102B51EC180B13F008FC0B
:1013B00053EC192B13F010FE9DED020B41EC190BB1
:1013C00053EC102B51EC1E0B13F0FAFB41EC110BFC
:1013D00051EC180B8DED101B94ED160B53EC102BEC
:1013E00013F0EEFB41EC110B51EC1E0B8DED0E1BBF
:1013F0009DED060B53EC102B13F0E2FB41EC110BAF
:1014000051EC180B8DED0C1B94ED140B53EC102BC1
:1014100013F0D6FB41EC110B51EC1E0B8DED0A1BAA
:101420009DED080B53EC102B13F0CAFB94ED120B3F
:1014300041EC1E0B53EC102B51EC180B13F0C0FBBE
:1014400053EC1E2B13F0C8FD9DED0A1B53EC112B22
:1014500013F0D8F89DED0C1B53EC112B13F0BCFDD1
:101460009DED0E1B53EC112B13F0CCF89DED101BD2
:1014700053EC112B13F0B0FD9FEDFE1B53EC112B21
:1014800013F09EFB9DED020B41EC1E0B53EC102B59
:1014900051EC1D0B13F094FB41EC110B51EC180BAC
:1014A0008DED101B94ED1C0B53EC102B13F088FBEF
:1014B00041EC110B51EC1D0B8DED0E1B9DED060B40
:1014C00053EC102B13F07CFB41EC110B51EC180B7F
:1014D0008DED0C1B94ED1A0B53EC102B13F070FBDD
:1014E00041EC110B51EC1D0B8DED0A1B9DED080B12
:1014F00053EC102B13F064FB94ED180B41EC1D0B17
:1015000053EC102B51EC180B13F05AFB53EC1D2B22
:1015100013F062FD9DED0A1B53EC112B13F072F8D2
:101520009DED0C1B53EC112B13F056FD9DED0E1B86
:1015300053EC112B13F066F89DED101B53EC112B9F
:1015400013F04AFD9FEDCB1B53EC112B13F038FB2E
:101550009DED020B41EC1D0B53EC102B51EC1C0BC1
:1015600013F02EFB41EC110B51EC180B8DED021B0F
:1015700094ED220B53EC102B13F022FB41EC110BDA
:1015800051EC1C0B8DED0A1B9DED060B53EC102B43
:1015900013F016FB41EC110B51EC180B8DED0C1BED
:1015A00094ED200B53EC102B13F00AFB41EC110BC4
:1015B00051EC1C0B8DED061B9DED080B53EC102B15
:1015C00013F0FEFA94ED1E0B41EC1C0B53EC102BA8
:1015D00051EC180B13F0F4FA53EC1C2B13F0FCFC39
:1015E0009DED061B53EC112B13F00CF89DED0C1B1D
:1015F00053EC112B13F0F0FC9DED0A1B53EC112B57
:1016000013F000F89DED021B53EC112B13F0E4FCDA
:101610009FED981B53EC112B13F0D2FA9DED040BA8
:1016200041EC180B53EC102B51EC1F0B13F0C8FAC4
:1016300010919DED001B824653EC112B13F0C0FA64
:1016400041EC110B53EC192B8DED0A1B51EC1F0BC8
:1016500013F0B6FA53EC192B13F0B2FA41EC110B5C
:1016600053EC1A2B8DED081B9DED040B51EC100B68
:1016700013F0A6FA814653EC1A2B119113F0A0FA3D
:1016800041EC110B8DED061B9FED7C0B51EC1B0B00
:1016900053EC102B13F094FA53EC1A2B13F090FA2E
:1016A00053EC192B13F08CFA9DED001B41EC1C0B35
:1016B00053EC1B2B51EC110B13F082FA074653EC41
:1016C0001B2B029113F07CFA53EC1C2B13F084FCBF
:1016D0009DED061B53EC112B12F094FF9DED081BA2
:1016E00053EC112B12F08EFF9DED0A1B53EC112BC6
:1016F00013F072FC41EC1C0B9FED620B53EC102BB2
:1017000013F08CF97DD053EC192B51EC1B0B13F01B
:1017100057FA53EC182B13F053FA41EC110B53EC1E
:101720001D2B8DED0E1B029941EC107B51EC100B23
:1017300013F046FA41EC110B8DED0C1B9DED000BE7
:1017400053EC102B9DED040B51EC100B13F038FAF9
:1017500053EC1E2B13F034FA41EC110B53EC192B04
:101760008DED081B51EC190B13F02AFA53EC1E2BCC
:1017700013F026FA41EC110B53EC1D2B8DED0A1BD7
:1017800051EC190B13F01CFA41EC110B53EC182B14
:101790008DED061B9DED040B51EC100B13F010FAB0
:1017A0009DED061B53EC112B13F016FC53EC1A2B7A
:1017B00013F006FA9DED0A1B53EC112B12F022FFD9
:1017C0009DED081B53EC112B13F006FC9DED0C1B3B
:1017D00053EC112B12F016FF9DED0E1B53EC112B49
:1017E00013F0FAFB41EC100B53EC1A2B8DED060BAA
:1017F00051EC1B0B13F0E4F98846064648EC100B3D
:1018000000E065E153EC182B51EC100B13F0D8F904
:1018100041EC110B53EC1E2B8DED041B029941EC96
:10182000107B51EC100B13F0CBF941EC110B51EC88
:101830001F0B8DED021B9DED000B53EC102B13F0D5
:10184000BFF953EC1D2B13F0BBF941EC110B53EC1A
:101850001A2B8DED081B51EC1A0B13F0B1F953EC58
:101860001D2B13F0ADF941EC110B53EC1E2B8DED3C
:10187000001B0BE0000000000000E03F0000000043
:1018800000000040000000000000000051EC1A0BB6
:1018900013F096F941EC1A0B53EC182B51EC1F0B7B
:1018A00013F08EF953EC1A2B13F096FB53EC192B13
:1018B00013F086F99DED001B53EC112B12F0A2FEE4
:1018C0009DED081B53EC112B13F086FB9DED021BC5
:1018D00053EC112B12F096FE9DED041B53EC112BD3
:1018E00013F07AFB41EC100B53EC1D2B8DED040B28
:1018F00048EC106B51EC100B13F062F941EC110B3A
:1019000053EC1E2B8DED001B119941EC109B51ECFB
:10191000100B13F055F941EC110B53EC182B8DED16
:10192000021B109941EC10AB51EC100B13F048F96D
:1019300041EC1A0B53EC1B2B51EC1B0B13F040F931
:1019400053EC182B13F03CF941EC180B53EC1E2B05
:1019500051EC1B0B13F034F941EC1B0B53EC1D2B1A
:1019600051EC1F0B13F02CF953EC1B2B13F034FB31
:1019700053EC192B13F024F953EC182B12F042FE00
:1019800053EC1A2B13F028FB9DED021B53EC112B8B
:1019900012F038FE9DED001B53EC112B13F01CFBD5
:1019A0009DED060B41EC190B53EC1C2B51EC100B6D
:1019B00012F0DCFE41EC180B53EC1C2B85ED008B78
:1019C0009DED040B51EC100B12F0D0FE41EC1A0B04
:1019D00053EC1C2B85ED02AB51EC190B12F0C6FE3B
:1019E00041EC190B85ED049B94ED100B53EC102B7F
:1019F00013F0E6F894ED0E0B41EC1B0B53EC102B9F
:101A000051EC1A0B13F0DCF894ED0C0B41EC1C0BB1
:101A100053EC102B51EC180B13F0D2F853EC1C2B99
:101A200012F0F0FD53EC1B2B12F0ECFD1FED6D1BC3
:101A300053EC112B13F0C4F894ED061B94ED000B3E
:101A400041EC1B0B53EC112B51EC100B12F0DAFD97
:101A500094ED0A1B53EC112B12F0D4FD53EC1B2B0D
:101A600013F0BAFA94ED301B53EC112B12F07EFEFA
:101A700041EC1B0B53EC192B51EC190B13F0A0F894
:101A800041EC190B53EC1A2B51EC1A0B13F098F88C
:101A900041EC1A0B53EC182B51EC180B13F090F887
:101AA00053EC1A2B12F0AEFD53EC192B12F0AAFDD9
:101AB00053EC1B2B12F0A6FD41EC100B0CF0D2F8EE
:101AC0008BED000B012013B0BDEC108BBDE8F08F47
:101AD0000020F8E72DE9F04F0D462DED108B044660
:101AE0008BB091ED00AB53EC1A2B51EC1A0B13F0A9
:101AF00067F894ED0CCB53EC1C2B13F061F853EC0E
:101B00001C2B13F05DF894ED30FB41EC180B53ECFB
:101B10001A2B51EC1F0B13F053F88B464BEC100BA8
:101B2000074653EC1A2B51EC100B13F049F894EDC7
:101B300000EB53EC1E2B13F043F853EC182B13F06F
:101B40004BFA41EC190B53EC1E2B51EC1A0B13F012
:101B500037F853EC1C2B13F033F84BEC107B94ED5F
:101B6000121B41EC180B53EC112B51EC100B13F022
:101B700027F853EC192B13F057F953EC182B12F0EC
:101B800041FD41EC1B0B1FEDC30B51EC1A0B53EC49
:101B9000102B13F015F8894649EC100B95ED029BBC
:101BA000064653EC192B51EC100B13F009F853ECCB
:101BB0001C2B13F005F894ED0EDB53EC1D2B12F0EB
:101BC000FFFF41EC180B1FEDD30B51EC1F0B53EC37
:101BD000102B12F0F5FF824653EC1A2B069112F0EF
:101BE000EFFF53EC192B12F0EBFF94ED021B53ECBB
:101BF000112B12F0E5FF53EC1B2B12F003FD53ECFD
:101C0000182B13F0E9F941EC180B53EC1C2B51EC99
:101C10001A0B12F0D5FF049194ED06BB804653ECED
:101C20001B2B12F0CDFF41EC110B4BEC107B8DED1B
:101C3000001B94ED141B51EC100B53EC112B12F004
:101C4000BFFF53EC182B13F0EFF89DED001B53EC86
:101C5000112B12F0D7FC41EC110B49EC106B8DED00
:101C6000001B95ED048B51EC100B53EC182B12F06C
:101C7000A7FF53EC1C2B12F0A3FF94ED10CB53ECF9
:101C80001C2B12F09DFF41EC110B53EC1A2B8DED28
:101C9000021B069941EC10AB51EC100B12F090FFB7
:101CA00053EC182B12F08CFF94ED041B53EC112B0A
:101CB00012F086FF9DED001B53EC112B12F0A2FCDD
:101CC0009DED021B53EC112B13F086F941EC100B28
:101CD0008DED000B049994ED0AAB41EC108B53ECA5
:101CE0001A2B51EC100B12F06BFF41EC110B4BEC6B
:101CF000107B8DED021B94ED161B51EC100B53EC79
:101D0000112B12F05DFF9DED001B53EC112B13F016
:101D10008BF89DED021B53EC112B12F073FC41EC80
:101D2000110B8DED001B9FEDFE0B51EC1E0B53ECC8
:101D3000102B12F045FF53EC1E2B12F041FF41EC2B
:101D4000110B8DED021B9FEDF60B51EC1F0B53ECAD
:101D5000102B12F035FF059194ED241B814653ECB6
:101D6000112B12F02DFF9DED001B53EC112B12F0E7
:101D700049FC9DED021B53EC112B13F02DF941ECA6
:101D8000110B53EC1E2B8DED001B51EC190B12F0B7
:101D900017FF53EC1D2B12F013FF41EC110B53EC0A
:101DA000192B8DED081B51EC1F0B12F009FF03914D
:101DB00094ED181B064653EC112B12F001FF9DED1C
:101DC000001B53EC112B13F02FF89DED081B53EC67
:101DD000112B12F017FC41EC110B8DED001B9FED48
:101DE000D20B51EC1E0B53EC102B12F0E9FE8B467C
:101DF0004BEC100B054653EC1B2B51EC100B12F067
:101E0000DFFE41EC110B8DED081B9FEDC70B51EC74
:101E10001F0B53EC102B12F0D3FE049194ED2A1BF0
:101E2000804653EC112B12F0CBFE9DED001B53ECC2
:101E3000112B12F0E7FB9DED081B53EC112B13F057
:101E4000CBF841EC110B53EC1E2B8DED001B51EC2C
:101E5000180B12F0B5FE53EC1C2B12F0B1FE41EC46
:101E60001E0B53EC182B51EC1F0B12F0A9FE029124
:101E700094ED1E1B074653EC112B12F0A1FE9DEDB5
:101E8000001B53EC112B12F0CFFF53EC1E2B12F062
:101E9000B9FB4BEC105B41EC1F0B53EC1A2B51ECD4
:101EA000100B12F08DFE41EC1E0B049994ED2C1BCF
:101EB00041EC108B53EC112B51EC100B12F080FE07
:101EC00053EC1F2B12F09EFB53EC1E2B13F084F8E7
:101ED00041EC1F0B53EC192B51EC190B12F070FE57
:101EE00053EC1D2B12F06CFE53EC1D2B12F068FE10
:101EF00041EC1E0B039953EC192B41EC106B51EC88
:101F0000100B12F05DFE53EC1B2B12F059FE53EC3C
:101F10001F2B12F077FB53EC1E2B13F05DF841ECF6
:101F20001F0B53EC1B2B51EC190B12F049FE53EC19
:101F30001D2B12F045FE41EC1E0B039994ED1A1B6C
:101F400041EC106B53EC112B51EC100B12F038FEDE
:101F500053EC1F2B12F068FF53EC1E2B12F052FBB8
:101F600041EC1F0B9FED720B51EC190B53EC102B36
:101F700012F026FE53EC182B12F022FE53EC1D2B10
:101F800012F01EFE53EC1C2B12F01AFE41EC1E0B3D
:101F9000069953EC192B41EC10AB51EC100B12F0DD
:101FA0000FFE53EC182B12F00BFE94ED081B53ECB4
:101FB000112B12F005FE53EC1F2B12F023FB53ECF8
:101FC0001E2B13F009F841EC1E0B53EC1D2B51ECAA
:101FD000190B12F0F5FD53EC1A2B12F0F1FD41EC48
:101FE000190B039994ED1C1B41EC106B53EC112B56
:101FF00051EC100B12F0E4FD53EC1E2B12F014FF09
:1020000053EC192B12F0FEFA41EC1D0B9FED44EB43
:1020100051EC1B0B53EC1E2B12F0D2FD53EC1B2B7F
:1020200012F0CEFD41EC190B059994ED261B41EC05
:10203000109B53EC112B51EC100B12F0C1FD53EC23
:102040001D2B12F0DFFA53EC192B12F0C5FF41ECF7
:102050001D0B53EC1B2B51EC180B12F0B1FD53EC84
:102060001C2B12F0ADFD41EC190B029994ED201BD5
:1020700041EC107B53EC112B51EC100B12F0A0FD36
:1020800053EC1D2B12F0D0FE53EC192B12F0BAFAC0
:102090009FED250B41EC190B53EC102B51EC1B0B56
:1020A00012F08EFD53EC1A2B12F08AFD41EC1B0B43
:1020B000049994ED2E1B41EC108B53EC112B51EC39
:1020C000100B12F07DFD53EC192B12F09BFA53EC20
:1020D0001B2B12F081FF41EC1B0B53EC182B51EC26
:1020E000180B12F06DFD53EC1C2B12F069FD53EC34
:1020F0001C2B12F065FD41EC190B029953EC182BC7
:1021000041EC107B51EC100B12F05AFD53EC1A2BE2
:1021100012F056FD53EC1B2B12F074FA0CE0000089
:10212000000000000000D03F000000000000E03F81
:10213000000000000000004053EC192B12F04CFF8F
:1021400041EC190B53EC1A2B51EC180B12F038FD23
:1021500053EC1C2B12F034FD41EC180B029994ED5A
:10216000221B41EC107B53EC112B51EC100B12F0A5
:1021700027FD53EC192B12F057FE53EC182B12F0DD
:1021800041FA41EC180B53EC1E2B51EC1A0B12F0D8
:1021900017FD53EC1A2B12F013FD41EC190B0599A6
:1021A00094ED281B41EC109B53EC112B51EC100BC0
:1021B00012F006FD53EC182B12F024FA53EC192BF5
:1021C00012F00AFF41EC100B0BB07DE430B5044671
:1021D000B0F88C0089B000040690B4F88E000D466B
:1021E00000040790B4F8900088340004089002A816
:1021F0000DF0B8FB029906982B46401A06900399F9
:10220000079806AA401A079004990898401A08905F
:102210002088616A80B20DF0F5F909B030BDF0B5E3
:102220000D462DED048B87B06946FFF7CFFF9FED7C
:10223000FE8B00246F469FEDFE9A03AE57F82400F4
:1022400000EE100A06EB8400B8EEC00A20EE090A80
:1022500080ED000A20EE000A10EE100A12F0A6FF30
:1022600053EC182B12F0CEF941EC180B641C032C24
:10227000E4DBB0EE480AF0EE680A0BF0F3FCB0EED7
:10228000408AF0EE608A002456F8240012F08EFF97
:1022900053EC182B12F06AFA12F082F900EE100AD1
:1022A00005EB8400641CD0ED000A032C30EE200AFC
:1022B00080ED000AE8DB686D401C68650DF01EFECD
:1022C000E86707B0BDEC048BF0BD2DE9F041044692
:1022D0000DF0F2FB40BB0DF073FB042824D0D54970
:1022E00020460E46FFF79BFFD34DD5E95C018142A6
:1022F00005DB304603F0E5FB0020C5F87401208EB5
:102300004FF00406C00515D504F118000DF0C6FB0A
:102310008009B0F5C87F0AD2D5F8B800002850DD92
:10232000401EC5F8B8004AE00120BDE8F081C5F8BC
:10233000B86044E0D4F8A010D5F81401081A01D40C
:10234000034600E04342BB4A4FF4A02C583A634591
:1023500005DDD4E929035365C2E913102FE0031208
:10236000D4F8A470D5F818015B43381A01D4864616
:1023700001E0C0F1000EE64505DDD4F8A800D16407
:10238000C2E914701BE0001200FB0033D4F8A8006F
:10239000D5F81C11401A01D4014600E041426145C4
:1023A0000DDC001200FB0030B0F5403FB4DBA03480
:1023B000C5F8B86094E80B004C3282E80B000020AE
:1023C000B3E70220B1E72DE9F04F9B4C2DED028BD6
:1023D00093B0D4F8A81090ED000B04EBC10181ED8F
:1023E000000BD4F8A810491CC4F8A81090ED020BFB
:1023F00004EBC10181ED000BD4F8A810491CC4F80E
:10240000A81090ED040B04EBC10080ED000BD4F894
:10241000A800401CC4F8A800152802DB0020C4F85E
:10242000A800182284490CA803F01DFF1822824935
:1024300004A803F018FF01260DF1300A0DF1100B6E
:10244000A146002406EB460808EB040109EBC10590
:102450000AEBC40795ED001B97ED000B53EC112B15
:1024600051EC100B12F0AAFC03D295ED000B87ED96
:10247000000B0BEBC40795ED001B97ED000B53EC25
:10248000112B51EC100B12F05FFB03D295ED000BFA
:1024900087ED000B641C032CD6DB761C072ED0DBEB
:1024A0009DED0C1B9DED040B53EC112B51EC100B0F
:1024B00012F092FD9DED0E1B9DED060B41EC180BED
:1024C00053EC112B51EC100B12F086FD53EC182B32
:1024D00012F03AFB0BD39DED0E1B9DED060B53EC5A
:1024E000112B51EC100B12F077FD41EC180B9DED08
:1024F000101B9DED080B53EC112B51EC100B12F03F
:102500006BFD53EC182B12F01FFB0BD39DED101B32
:102510009DED080B53EC112B51EC100B12F05CFDF0
:1025200041EC180B13B0B0EE480AF0EE680ABDECAF
:10253000028BBDE8F08F10B504462DED068B9CB0E4
:10254000002155200E91CDE90F1011909FED3B8B8E
:102550000AA80DF0D1F912A90AA80DF0DCFD16AAFF
:102560000EA912A80DF0FAFD6A460AA916A80DF0E8
:10257000F5FD0198B2EE059A00F59670019002986B
:10258000B0EE490A00F596700290039800F5967037
:102590000390FEF78BFBBDEEC00A019910EE100A06
:1025A000B0EE490A08440190FEF780FBBDEEC00A78
:1025B000029810EE101AB0EE490A08440290FEF795
:1025C00075FBBDEEC00A039910EE100A0844039093
:1025D000204601A9FEF77DFC94ED300B9FED191B01
:1025E00051EC100B53EC112B12F0E8FB5DD21AAA40
:1025F00004A92046FEF73FFE60B39DED080B9FED5A
:10260000138B51EC100B53EC182B12F0E5FC41EC42
:10261000100B53EC102B12F0D3FA41EC190B9DED7B
:10262000060B53EC182B16E0000000000000000021
:1026300000008037E0390020C03800200000000092
:1026400000408F4000000000000034400000000007
:1026500000C0724029E051EC100B12F0BDFC41ECBF
:10266000100B53EC102B12F0ABFA9DED040B41EC68
:102670001A0B53EC182B51EC100B12F0ADFC41EC83
:10268000100B53EC102B12F09BFA53EC1A2B11F099
:10269000B9FF53EC192B11F0B5FF41EC100B0BF007
:1026A000E1FAB0EE408AF0EE608A9FEDFD0B51EC4E
:1026B000180B53EC102B12F059F81CB041EC100B16
:1026C000BDEC068B10BD10B5E821F74803F064FEA1
:1026D000F648F74920F8BC1F4A0CC280C1818282AB
:1026E00081834284F048E821E83003F055FEEF4949
:1026F0000020C1F8B40010BD2DE9F043EB4D0446B5
:102700002DED108BC3B0006BC5F8A0012046FFF77C
:10271000DCFD00287ED1D5F8941105F1BC08012913
:1027200011D1B4F98C003D90B4F98E003E90B4F90B
:1027300090003F903DA9DC48FEF7CBFB04F18C01F3
:10274000404600F0A4FB1FED48DB9FEDDABB9FED98
:10275000DBCB9FEDDCAB9FEDDDEBD34ED5F8080175
:10276000E83E002802DD401EC5F8080196ED300B5A
:1027700053EC1D2B51EC100B12F020FB7DD2CA49FB
:10278000E822E839684603F06EFDC7483DA9E838FD
:10279000FEF79FFBC44940AA20390F46A1F1C800AB
:1027A000FEF769FD00287BD0BF483946E838FFF7BF
:1027B00091F9B0EE408AF0EE608A95ED400B51EC55
:1027C000180B53EC102B12F007FC96ED300B41EC7C
:1027D000190B53EC1B2B51EC100B12F0FDFB41ECD1
:1027E000100B51EC190B53EC102B11F0BFFF41EC07
:1027F000100B0BF037FA96ED30FBB0EE409AF0EE8E
:10280000609A53EC1B2B51EC1F0B12F0E5FB53ECC1
:102810001F2B00E0E9E012F0D3F941EC1F0B53EC61
:102820001C2B51EC180B12F0CBF953EC1F2B11F0B1
:102830009DFF41EC100B0BF015FAD5F8E80012F0F3
:10284000B5FC95ED381B53EC112B12F0B9F953EC94
:10285000192B12F079F903D3D5F80801002826DDE9
:102860009148E8226946E83803F0FDFCD5F8E80015
:1028700012F09CFC95ED381B01E010E010E053ECE9
:10288000112B12F09DF953EC192B12F05DF95CD26B
:102890004FF4FA7001F03CFE0A20C5F8080154E03C
:1028A0008148E8226946E83803F0DDFC4DE0D5F8C0
:1028B0009801012849D1D5F8B400401CC5F8B400EE
:1028C00000200EF0BDF896ED320B53EC1A2B51ECB4
:1028D000100B12F075F912F0DDF83A9096ED340B0A
:1028E00053EC1A2B51EC100B12F06AF912F0D2F8DB
:1028F0003B9096ED360B53EC1A2B51EC100B12F06B
:102900005FF912F0C7F83C9003213AA80DF0FCFFE4
:1029100096ED300B53EC1E2B51EC100B12F04EFACF
:1029200011D29FED6C0A6049E839F0EE400A084682
:10293000FEF7FFF95C483946E838FFF7CBF8B0EE10
:10294000408AF0EE608A85ED408B208E564FC005A0
:102950000CD5B4F87400C00508D507F1E800FFF7FE
:10296000EAFDB0EE408AF0EE608A01E09FED4C8B0C
:1029700097ED300B1FEDCD1B51EC100B53EC112BD1
:1029800012F0E2F831D3484940AAC8318946464896
:10299000FEF771FC00287CD0D4F8AC0012F0A9F846
:1029A00041EC100B53EC102B9FED4B0B51EC100B2B
:1029B00011F0DCFE41EC1F0B4846FFF704FDB0EEC2
:1029C000409AF0EE609A53EC1F2B51EC190B12F069
:1029D000F5F90BD29FED420B51EC180B53EC102B79
:1029E00012F0B2F802D2FFF76EFEDBE153EC1F2BC0
:1029F00051EC190B12F0A8F851D251EC180B9FEDC5
:102A00003A9B53EC192B12F09FF8F5D297ED300B4F
:102A10009FED371B51EC100B53EC112B12F0CEF93C
:102A2000EAD296ED300B53EC1D2B51EC100B11F04C
:102A3000F5FF7CD149461C48FFF74CF8B0EE408AC0
:102A4000F0EE608A85ED408B97ED309B53EC1B2BAD
:102A500051EC190B12F0C0FA53EC192B12F0B0F82C
:102A600041EC190B53EC1C2B51EC180B12F0A8F88D
:102A700053EC192B11F07AFE41EC100B0BF0F2F82D
:102A8000B0EE408AF0EE608AD5F8E80012F08EFBD6
:102A900000E088E195ED381B53EC112B2CE078E138
:102AA0000000000000000840F0360020C038002080
:102AB0000080FFFF000000000000F03F0000000069
:102AC00000000040000000000000F0400000000096
:102AD00000409F406666E63E9A9999999999A94166
:102AE000000000000000F83F00000000000010405F
:102AF0000000000000003E4012F062F853EC182B7A
:102B000012F022F8FFF46FAF9DED400B49464046AE
:102B1000FDF7C4FF02283FF466AF00287ED1D5F848
:102B200098010128FAD100200DF08AFF00E02FE083
:102B300097ED320B53EC1A2B51EC100B12F040F8BE
:102B400011F0A8FF3A9097ED340B53EC1A2B51EC8F
:102B5000100B12F035F811F09DFF3B9097ED360BFE
:102B600053EC1A2B51EC100B12F02AF811F092FFD3
:102B70003C9003213AA80DF0C7FE01200DF0F4FEB1
:102B8000192000900190029068460DF0E3FEF6E0F7
:102B9000D5F8B40011F0ADFF97ED301B53EC112BBD
:102BA00011F0E4FD9FEDE71B53EC112B12F006F939
:102BB000A8D34946E548FEF78DFF97ED30DBB0EE30
:102BC000408AF0EE608A53EC1B2B51EC1D0B12F087
:102BD00003FA53EC1D2B11F0F3FF41EC1B0B53ECEC
:102BE0001C2B51EC180B11F0EBFF53EC1B2B11F0CD
:102BF000BDFD41EC100B0BF035F8B0EE40BAF0EE35
:102C000060BAD5F8E80012F0D1FA95ED381B53EC14
:102C1000112B11F0D5FF53EC1B2B00E087E011F0D6
:102C200093FFC5D39DED400B49464046FDF736FF67
:102C300000287CD196ED361B97ED360B53EC112B0B
:102C400051EC100B12F0C8F941EC100B53EC102BA7
:102C500011F0B6FF96ED341B97ED340B41EC1B0BD6
:102C600053EC112B51EC100B12F0B6F941EC100B98
:102C700053EC102B11F0A4FF96ED321B97ED320BA5
:102C800041EC1C0B53EC112B51EC100B12F0A4F97E
:102C900041EC100B53EC102B11F092FF53EC1C2B5A
:102CA00011F0B0FC53EC1B2B11F0ACFC41EC100B01
:102CB0000AF0D8FFB0EE40BAF0EE60BAD4F8AC003B
:102CC00011F017FF53EC1B2B11F07AFF9FEDA01BA7
:102CD00053EC112B11F074FF41EC1B0B53EC192B2F
:102CE00012F06CF81AD39FED9C0B51EC1B0B53ECBC
:102CF000102B12F063F8BFF476AED5F8B40011F0E3
:102D0000F8FE97ED301B53EC112B11F02FFD9FEDCA
:102D1000941B53EC112B11F017FFECD2D5F898014E
:102D200001287FF460AE00200DF08AFE00E039E05B
:102D300085ED408B97ED320B53EC1A2B51EC100BB9
:102D400011F03EFF11F0A6FE3A9097ED340B53ECD4
:102D50001A2B51EC100B11F033FF11F09BFE3B903E
:102D600097ED360B53EC1A2B51EC100B11F028FF9A
:102D700011F090FE3C9003213AA80DF0C5FDF7EE4E
:102D8000000A9FED790A7149A1F1E800FDF7D1FF32
:102D900029E697ED300B53EC1E2B51EC100B12F083
:102DA0000DF8F5D3002043B0BDEC108BBDE8F083E7
:102DB00070B56E4C0546D4F80C0110B9284600F0E9
:102DC00091F8D5F8B01044F6206081420ADAD4F8C0
:102DD000102111448142C4F810114FF0000005DBAE
:102DE000C4F810012846BDE8704085E470BD042297
:102DF0004FF4C871AFF247000DF0EEBBAFF24F00D9
:102E00000DF090BF514810B5E821E83803F0C4FA3E
:102E1000FFF759FC4FF4D471544803F0BDFA534CFA
:102E2000B7EE000A04F5907084ED3A0A02F095FDC1
:102E30000A20C4F87001B2EE000A84ED570A1E2081
:102E40009FED4B0AC4F87C0184ED620A9FED490AAC
:102E500084ED610A9FED480A002084ED630A10BDED
:102E600010B5FFF7CFFF002805D1AFF27D00BDE818
:102E700010400DF075BC10BD10B5AFF2CB000DF0D9
:102E800051FFAFF29500BDE810400DF07DBF30B5A9
:102E90000022C2EBC20331F9124030F91350AC42A8
:102EA0000ADD02EB42040D8820F8245000EB840474
:102EB0004D8865808D88A58000EB430331F9124071
:102EC000B3F906309C4209DA02EB420300EB8303BC
:102ED0000C88DC804C881C818C885C81521C032A05
:102EE000D7DB30BD70B5214DD0F8AC200446EAB137
:102EF000D3170020192103F0FDF845F8AC0F54F862
:102F0000AC2F0020D317052103F0F4F86860226885
:102F10000020D317962103F0EDF811F0EAFDC5E982
:102F20000D01AC3D0120C5F80C0170BD6FF00040F3
:102F3000C5F8AC009FED110BC5F8B00085ED380B5E
:102F4000F0E700000AD7A3703D0AE73FF036002003
:102F5000000000000000103E0000000000000440DF
:102F6000333333333333C33F00000000C038002015
:102F7000CDCCCC3E3333333F9A99193F0000C0FF8C
:102F8000FFFFDF4110B5FF49C4074FF040434FF04A
:102F9000804205D08B66CB66C1E91C328A67CA675E
:102FA000840709D5C1F80031C1F80431C1E94232C2
:102FB000C1F81021C1F81421400709D5C1F8983192
:102FC000C1F89C31C1E96832C1F8A821C1F8AC212F
:102FD00010BD2DE9F14F002082B082468146029853
:102FE000806F00287ED000220020401C0428FCDBDB
:102FF000029800EBC203D3E90010A1FB0167D3E9FB
:10300000065400FB017701FB0077AB46AD1BCDE911
:1030100000670326A5FB06C8A64664EB070404FB6D
:103020000684002705FB0745DDE900671CEB060465
:103030007D41A4FB016705FB017504FB0055D3E945
:103040000C47341B65EB0705CDE900455D46A5FB44
:1030500005670324A6FB04580EFB0B770BFB0E77CA
:1030600007FB04844FF0000C06FB0C44D3E9126309
:10307000761B63EB04034C18A4FB017C40EB0005BA
:1030800005FB01C504FB0055A7FB014C05FB01C571
:1030900007FB0055A4FB017C05FB01C504FB0054A4
:1030A000F6196341DDE90045AD0045EA9475A400D9
:1030B000A4FB017C05FB01C104FB0014F01B73EBB6
:1030C000040103D50023404263EB0101BAEB000485
:1030D00079EB010301DA82468946521C032A83DB1D
:1030E000504600E016E0494612F08EF800EE900AD5
:1030F000A54890ED0E1A80EE810A10EE100A12F02B
:1031000001F9A04AD2F80C2203B09200BDE8F04FBA
:1031100002F0DDBF002003B00146BDE8F08F2DE9CD
:10312000F14F0020009A0146926FE2B30024002282
:10313000521C042AFCDB009A02EBC405AA46D5E91E
:103140000029A2FB023CD5E906769E46FB1A032520
:10315000A3FB057809FB02CC02FB09CB66EB0B064F
:1031600006FB05854FF0000C03FB0C5617EB0E0316
:10317000A3FB027C46EB0B0606FB02C203FB092302
:10318000DAE90C25BA1AAB4103D50025524265EBAA
:103190000303851A71EB030501DA10461946641C16
:1031A000032CC4DB00E015E012F02EF800EE900ACC
:1031B000754890ED0E1A80EE810A10EE100A12F09A
:1031C000A1F8704AD2F80C22BDE8F84F02EB420297
:1031D00002F07DBF00200146BDE8F88F2DE9FE43D7
:1031E000684D80460024D5F810626F4605EBC40197
:1031F0003246D1E9020102F057FF05EB8401B1F834
:1032000084100904401847F8240004F10104032C39
:10321000ECDB5C489821083003F0BEF80120FFF792
:10322000B1FE95F8E8010199042807D1D5F81802F4
:10323000B0F5201F02DD052085F8E801524C00980A
:10324000636AC11A01D40E4600E01E1A0198A26AF0
:10325000801A01D4074601E0019FD71BBE4206DD5C
:10326000002901D4084606E00098181A03E0002857
:1032700001D50198101A029AE16A521A01D4134634
:1032800001E0029BCB1A834205DB002A01D41046E1
:1032900001E00298081AD8F824100CF0F4FED5F8D2
:1032A0001812814206DD032168460DF05FFC022002
:1032B0000DF0C4FC009860620198A0620298E06280
:1032C000BDE8FE83304AC2E9020170472E4AC2E9D6
:1032D000060170472C4AC2E904017047294AD2F816
:1032E000E0310360D2E97402C1E900027047254A67
:1032F000D2F8E0310360D2E97602C1E900027047FA
:103300002DE9FE4781460020EA468A6F22B901EB8B
:10331000800339F91020DA6701EB800239F91030A7
:10332000D46F1D1B4AF82050136E9D4200DD1566B8
:10333000D36E9D4200DAD5660123002422464FEA6F
:10334000E578A3FB056704FB057403FB08443346DB
:1033500002EB420601EBC60606EBC00CDCE9007688
:10336000FF186641CCE90076521C042AE9DB401CB8
:103370000328CADB886F401C88670120C1F89000D1
:10338000BDE8FE87683A0020C83C002030B5002325
:1033900002EB830550F823405B1CEC66032BF7DB44
:1033A000C2F88810916F79B1002102EB810450F8C6
:1033B0002130E56F5B1B00D55B42256E9D4200DA34
:1033C0002366491C0329F0DB906F401C90670120A5
:1033D000C2F8900030BD10B500210B4600EB810211
:1033E000491CD46ED46713660329F7DBD0F8881024
:1033F00040F8783FC0E9051310BDD0E92210081A43
:1034000070470146D1E91802824200DB1046896EFE
:10341000814200DB084670472DE9F0478046501E88
:10342000012686408946C2F12007404602F04FFE41
:1034300004460D46404649463A4602F035FE3A46B5
:1034400002F045FEB04203DD641C45F1000505E0D5
:103450007142884202DA641E45F1FF352046294652
:10346000BDE8F087F7490020086248628862C862B8
:10347000086448648864C864086348638863C863F0
:10348000086548658865C865704730B5EE4AD2F86A
:10349000483223B1D2E990542D1A8C4101DAC2E9A5
:1034A00090015B1CC2F8483230BD30B5E64AD2F814
:1034B000583223B1D2E994542D1A8C4101DAC2E971
:1034C00094015B1CC2F8583230BD30B5DE4AD2F8E8
:1034D00028322BB1D2E98845041B71EB050401DACF
:1034E000C2E988015B1CC2F8283230BD30B5D64A2B
:1034F000D2F838322BB1D2E98C45041B71EB0504AC
:1035000001DAC2E98C015B1CC2F8383230BD2DE90A
:10351000F0470246CC48012508308046C36E016E54
:10352000046FC91A436E1B1B8B4200DB1946836E66
:10353000D8F87400181A884200DB0146C14F603782
:10354000F86B884204DA002400F010FA204687E77E
:10355000108E0124BC4EC0054FF000010ED5D6F8E8
:1035600080303068834209DBB2F87420D20506D57A
:10357000D6F8B021824201DB052400E00C4674B38A
:10358000600719D5AF48C8388146FFF722FD000D06
:1035900040EA01300915C6E97601D7E904321B1A61
:1035A0008A4102DA0025FFF7A1FF9821484602F080
:1035B000F3FE0420FFF7E6FCE0070ED04046FFF7DD
:1035C00008FDC6E97C01D7E906340246181A8C4189
:1035D00003DA00251046FFF778FF284640E7FFE7AB
:1035E00002203DE71EB5044690F83000C0F381107C
:1035F000032804D19449201D0831FFF781FE94F877
:103600007400C0F38110032805D18E4904F14800ED
:10361000C839FFF775FED4F8B8008B4AC0F38113A0
:10362000A0326946032B0FD0C0F3411003281AD1F2
:10363000002004EB8003D3F8A0309B1341F8203026
:10364000401C0328F5DB09E0002004EB4003B3F93C
:103650008C3041F82030401C0328F6DB6846D4F853
:10366000C010FFF793FE1EBD2DE9F0470546002070
:10367000296BCA056AD501F05001402900D101200B
:1036800095F8741001F05001402900D1012095F8FF
:10369000B8106D4C01F05001402900D030B100F05D
:1036A00065F90020C4F8E00184F8E801654ED4F81B
:1036B0000812E86A6036814228D0C4F808020A2855
:1036C000306B0CDA40002060716B00EE100A491C70
:1036D000C4F80C12B8EEC00A0AF001FB05E0206045
:1036E000706BC4F80C0296ED0E0A84ED850AD4F8CE
:1036F0000C02C0F11000C4F810024FF48040C4F86E
:10370000180296F8341019208840F0632846FFF715
:1037100069FF94F8E811DFF8309105274FF00208AF
:1037200009F1A009072911D2DFE801F004112730BF
:103730005E7E8500D4F8E001411CC4F8E0110A283F
:1037400004DB00F013F9012084F8E80186E0D4F8E6
:103750009800012810D12846FFF7D9FE10B10128A2
:1037600003D004E084F8E87101E084F8E881484679
:10377000FFF731FEFFF776FE70E0032084F8E801E2
:103780002846FFF72BFD00F0F1F867E02846FFF729
:10379000BEFEE8B3012861D1B5F8B8004FF00403CC
:1037A000C00515D54846FFF72CFE0146C017C4E9F1
:1037B0007410D6E902C2BCEB0101824102DA84F83E
:1037C000E87108E04846FFF718FE316A884202D3E4
:1037D00084F8E83124E0F4E97601FFF766FED4E9E5
:1037E0000601FFF752FE39E0B5F8B800C0050BD569
:1037F0004846FFF706FE0146C017C4E97410D6E933
:103800000232591A824108DB2846FFF780FE00E0A9
:1038100003E010B1012803D020E084F8E8711DE036
:103820002846FFF7DBFCD6E7062084F8E8010120F4
:103830000DF004FA0DE02846FFF769FE012805D0D7
:1038400038B10BE0683C0020683A002084F8E88139
:1038500004E000F08BF84846FFF7BDFD0020FFE5CF
:1038600010B500214010002802D001F10101F9DC5F
:103870004FF0010001F1010100FA01F0434C00EEAC
:10388000100AC4E90C01B8EEC00A0AF028FA84ED67
:103890000E0A94F8341019208840E06310BD10B56A
:1038A0004FF418713A4802F077FD4021374802F092
:1038B00073FD0720FFF766FB344840F2DC5100221D
:1038C000C0E906121421C0E902124FF41671C0E9D2
:1038D000041230492E4C01620120C4F8E401192081
:1038E000FFF7BEFF0020C4F8080210BD10B54FF46A
:1038F0001871274802F050FD0720FFF743FB2448CA
:1039000001210022C0F8E41180F8E8110321012010
:103910000DF086F907226421AFF2B320BDE8104014
:103920000CF05ABE10B501200DF088F9AFF2C72097
:10393000BDE810400DF0F6B910B5FFF7B0FF002854
:1039400005D1AFF25700BDE810400CF009BF10BD23
:1039500010B5FFF7E7FFAFF26B00BDE810400DF0C8
:1039600013BA0B49D1E97C0170477047084810B57C
:103970009821083002F010FD9821074802F00CFD54
:10398000BDE810400520FFF7FDBA0000C83C00204C
:10399000683A00200008AF2FA03B0020F0B5164683
:1039A0002DED028B85B01F460C4605463C22FE4994
:1039B000A1F10C0002F089FCFB4950224C31A1F12D
:1039C000100002F082FCF84996E80D000C3901F174
:1039D0003C0C8CE80D005CCC01F1980080E85C00A8
:1039E0009FEDF28AD1F82401401CC1F82401062879
:1039F00002DD0620C1F82401C0F106060C46A03500
:103A00001AE004EB06116A46384648310CF0A6FB72
:103A100006EB460004EB80016A4628460BF09AFD4F
:103A2000F0EEC00AB0EEC81AF4EEC10AF1EE10FAD8
:103A300001D2B0EE408A761C062EE2DB05B0B0EE75
:103A4000480ABDEC028BF0BD70B514462DED048B19
:103A50000E46B0EE408A00259FEDD59A416BF0EE00
:103A6000498A002904DBD0F8BC00032800D10125D5
:103A7000CD492422B431081F02F027FCCA480C3873
:103A8000002380ED388A00EB83015B1C91ED2F0A47
:103A90000A2B70EE288AF6DBB2EE040AC822C8EEC2
:103AA000800AC0ED390A9FEDC31A322E1DDB9FED4F
:103AB000C20AC0F81C21B6F57A7FC8EE001A00EEE3
:103AC000104AB8EEC00A61EE801A81EE810A2FDB3F
:103AD0009FEDBA0AC8EE001A00EE104AB8EEC00A0E
:103AE00061EE801A81EE810A22E041F2883194FB76
:103AF000F1F14942D0F81C3101EB8101C918C0F83D
:103B00001C1102D50021C0F81C119FEDAD0AC8EEB2
:103B1000001A00EE104AB8EEC00A61EE801A81EE7B
:103B2000810A29B9D0F82811012901D1B0EE490A3A
:103B3000D0F8201109B1B0EE480AA2498C4201D157
:103B4000B0EE480AB5EEC00AF1EE10FA01D0C0EDB1
:103B50003A0A90ED3A1A9C4B71EE600AF0EEE00AD8
:103B600010EE901A994227DDD0ED2E0AF5EEC00A2C
:103B7000F1EE10FA20D1002D1ED0C0F81C212046F5
:103B800010F0B7FF41EC190B18EE100A11F00EFB04
:103B90009FED8E1B53EC112B10F0E8FD53EC192B0D
:103BA00011F00EF89FED8B1B53EC112B10F0DEFD86
:103BB00010F0F6FC00EE100ABDEC048B70BD2DE990
:103BC000F04F04462DED048BA9B09FED799A4FF08C
:103BD000000A754ECDF810A00C3ECDF814A0CDF81B
:103BE00018A0D6F82011022003297DD000209FEDD7
:103BF0007B8A20AD06EB800191ED2A0A05EB80015E
:103C0000401CB8EEC00A042820EE080A81ED000A24
:103C1000F0DB0FA80BF070FE24A80BF0D7FE624B70
:103C200024AA9C330FA920462793FFF7B7FEF0EE96
:103C3000408A04F118000BF031FF81096148D6F881
:103C40003021824200DB0246B0EE680A2046FFF7D0
:103C5000FBFED6ED3B0AB3460BA820EE200A86ED0C
:103C60002E0A0BF049FE13A90BA80CF048FC4E4895
:103C70000FAAF0300BA906460CF070FA31460BA8DB
:103C80000CF049FA00210DF13C080DF14C090DF141
:103C9000100E00221346104601EB410C0CEB0007FE
:103CA00059F8276008EB8007401C7F680328C6FB93
:103CB0000723F3DB900F40EA83004EF82100491CF4
:103CC0000329E6DBDBF820015E4600286AD0504677
:103CD000CDF818A0404200EE100AB8EEC00A20EE5F
:103CE000080A09F061FC00E0A2E08DED000A8DED0C
:103CF000019A8DED029A0698404200EE100AB8EE45
:103D0000C00A20EE080A09F0E5FE8DED030A9DEDDC
:103D1000060ADFED330AD6F83001B8EEC00A41F2E8
:103D2000883190FBF1F080EE201A00EE100AF8EED8
:103D3000C01A81EE210AB0EE001AC0EE011ABDEEE3
:103D4000E10A10EE101A490000EE101A0691B8EEC2
:103D5000C00A60EE200A00EE100AB8EEC00A20EE9B
:103D6000800ABDEEC00A8DED060AB8EEC00A20EE4C
:103D7000080A09F019FC8DED070A8DED089A8DED02
:103D8000099A9DED060AB8EEC00A20EE080A09F06D
:103D9000A1FE8DED0A0A1CAA694620A80CF037FA8C
:103DA0006A461FE04BE00000143D002000247449E7
:103DB0000000000000409C450000484300004842CD
:103DC0000000C84340420F000E2DB23D000000002D
:103DD00000007940000000000088B34000008030FF
:103DE000E102374707A91CA80CF011FA6F46DFED76
:103DF000958AD4F8BC00002813DD002007EB800171
:103E000091ED000A05EB800181ED000A20EE280A01
:103E100006EB8001401C0428BDEEC00A81ED2A0A91
:103E2000ECDBD4F8BC00F6EE009A03280CD108E0D5
:103E3000C6F8200129B0BDEC048BBDE8F08F0698D0
:103E400048E700F03DFEE0B396ED2A0AB8EEC00A5E
:103E500020EE080A8DED1C0A96ED2B0AB8EEC00A7A
:103E600020EE080A8DED1D0A96ED2C0AB8EEC00A68
:103E700020EE080A8DED1E0A96ED2D0AB8EEC00A56
:103E800020EE080A8DED1F0AD6F820010028D1D0B7
:103E900096ED2E0A20EE290A09F086FB20EE280A6C
:103EA000BDEEC00A86ED2A0AC6F8ACA0C6F8B0A0DE
:103EB00096ED2E0A20EE290A09F00CFE20EE280AC3
:103EC00000E004E0BDEEC00A86ED2D0A2BE096ED81
:103ED0002E0A20EE290A09F067FB8DED070A8DED09
:103EE000089A8DED099A96ED2E0A20EE290A09F01E
:103EF000F1FD8DED0A0A6A4607A920A80CF087F9A2
:103F000068460CF041FA002007EB800191ED000AB1
:103F100006EB8001401C20EE280A0428BDEEC00AF2
:103F200081ED2A0AF0DBD4F8C01027980CF022FDAE
:103F3000D6F820010028AAD0401E79E770B590F885
:103F4000B810414ACC064FF000034FF0030101D4F2
:103F5000C2E94813B0F82041E40509D4048EE40511
:103F600003D5B0F87440E40502D4C2E948131AE05E
:103F7000D2F8341139B1D0E93013C91A4FF47A7339
:103F8000B1FBF3F105E0D0F8B01044F62064A14293
:103F900002DBC2F830110AE0D2F82C512944C2F8F1
:103FA0002C11A14201DA002070BDC2E94B31FFF7AC
:103FB00006FEF8E710B54FF49C71234802F0ECF9C7
:103FC000214C4FF080400021C4F8FC0044F8A80FB9
:103FD0001D48A8300CF0CEFC4FF47A70B7EE000A02
:103FE000606784ED110A10BD174880ED3B0A002080
:103FF00070471549C1F82801002070471249C1F8DF
:1040000034010020704704224FF41671AFF2D30040
:104010000CF0E2BAAFF2DB000CF084BE10B5FFF793
:10402000C9FF09490020C1F82801C1F83401AFF2E5
:104030002900BDE810400CF093BBAFF235000CF046
:10404000A3BE00000000804E083D00201FB50146C1
:104050001022684602F0C2F8F7489DE80E0080E89A
:104060000E00F6499DF80C0081F8B001002004B064
:1040700010BD1FB5F0490EC98DE80E00EF491022A2
:1040800091F8B0118DF80C10694602F0A7F80020E5
:10409000EDE72DE9F04F91B000251821684602F0B8
:1040A0007BF90024182106A802F076F9E348A0461F
:1040B000C14690F8C01101297ED1D0F8B8B1D0F82E
:1040C000B4A10022C2EBC20000EB4001DB4800EBD0
:1040D000810E9EF850000F90002864D000215FE010
:1040E000DDE900076D1C5EF821300E93181847EBD0
:1040F000E376CDE900060EEB8100EDB243690D9346
:10410000DDE9027C4FEAE376DB1946EB0C06CDE9EC
:104110000236836ADDE9047CDE170C93DB1946EB7B
:104120000C06CDE90436C06B0E9BDDE9067C83FBF3
:104130000063360C46EA0346F6194CEB2343CDE9FF
:1041400006630D9BDDE9087C83FB00634FEA16469E
:1041500046EA0346F6194CEB2343CDE908630C9B72
:10416000DDE90A7C83FB00634FEA164646EA034614
:10417000F6194CEB2343CDE90A6380FB00634FEA59
:10418000164646EA034616EB080849EB2349044461
:10419000584501DA834602E0504500DD8246491C5D
:1041A0000F9888429CDC521C052A8BDBA348AAEBA3
:1041B0000B01D0F8BC0100E056E0814254DBA5FBC6
:1041C0000823E0170026109006FB083005FB0900C5
:1041D000CDE90C2084FB0420110C41EA00410014BD
:1041E000CDE90E0106A800EBC601D1E90003A0FB52
:1041F00005B203FB0522002100FB012C684600EB01
:10420000C601D1E90001A0FB043701FB0471109A3B
:1042100000FB0210190C41EA00490CAA4FEA204A9F
:1042200092E889000F9983EA070880EA010252EABE
:10423000080212D0421A63EB0703BBEB09006CEBD8
:104240000A0C4FEA0C4141EA1041000401F052FF10
:104250007A4901EB8601C1F8A401761C032EC1DB6B
:104260007648012180F8B01111B00020BDE8F08F30
:10427000F8B5724D0E460446D5E96D01091A0522BE
:1042800091FBF2F1301A90FBF1F0C0B28DF8000012
:10429000042801D92020F8BDC0EBC00000EB40008D
:1042A00005EB800191F85000052816D0421C81F8DA
:1042B00050209DF80010C1EBC10101EB410105EB5D
:1042C000810202EB8001CE63236842F820306068EF
:1042D0004861A06888620020F8BD01F14003181F02
:1042E0001022194601F0F1FF9DF800001022C0EBEA
:1042F000C00000EB400005EB8000011D01F0E5FF70
:104300009DF800001022C0EBC00000EB400005EB60
:10431000800000F11801143001F0D7FF9DF8000073
:104320001022C0EBC00000EB400005EB800000F164
:104330002C01283001F0C9FF0420BAE730B585B060
:10434000044603A968460BF07FFB04A80BF044FC6D
:1043500002282BD0D4F8E4000399401A374991F889
:10436000B02112B308B3D1F8A421009C80FB023223
:10437000150445EA134222440092D1F8A821019C79
:1043800080FB0232150445EA134222440192D1F81F
:10439000AC11029A80FB0110030443EA114010445F
:1043A0000290032168460CF0E1FB0CE0606B0328EF
:1043B00009D10BF05BFB30B168460399FFF758FF5A
:1043C00008B9FFF766FE05B0002030BD10B54FF408
:1043D000E2711A4801F0E0FF18481949C0F8B41119
:1043E0004FF4AA01C0F8B8114FF4A021C0F8BC11D5
:1043F000012180F8C011002010BD1049C1F8B8019A
:10440000002070470D49C1F8B401002070470B49E6
:10441000C1F8BC010020704758B10849D1F8A42167
:104420000260D1F8A8214260D1F8AC11816000206F
:104430007047052070470000E43F0020403E002008
:104440000000D8FF2420F5E720B12D4981F8C001F4
:104450000020EFE72420EDE7294B93F8B101002875
:10446000E8D0D3E96D10401A052190FBF1F000204F
:10447000C0EBC00101EB410103EB810191F8502039
:1044800022B1002100E0491C8A42FCDC401C0528C6
:10449000EEDB0020CEE7082296211A480CF09CB8EB
:1044A00018480CF03FBC10B5FFF790FF4FF49A731B
:1044B0001022154915480CF00BF920B9AFF229006C
:1044C0000CF04EF908B1012010BD0D49012081F812
:1044D000B101002010BD10B5094C94F8B1010028BD
:1044E00008D008480CF01EFCAFF255000CF04CFC54
:1044F00008B1012010BD002084F8B10110BD0000FA
:10450000403E00203D430008734000084D40000835
:10451000002803DDFE490122C1E920020020704786
:1045200010B5B821FA4801F037FF9FEDFA0AF848B4
:1045300080ED030A9FEDF80A80ED020A9FEDF70A6D
:104540004FF0804180ED000AB3EE0E0A80ED010AC3
:1045500041664FF4FA619FEDF20AC16780ED270AC8
:10456000002010BD70B5EA4C002594ED001AB4EEA1
:10457000C01AF1EE10FA17D394ED011AB4EEC01A76
:10458000F1EE10FA10DC2069012817D194ED030A2E
:10459000B4EEE00AF1EE10FA06D394ED020AB4EE9E
:1045A000E00AF1EE10FA09DD606F20B9D848A16D7C
:1045B00018300CF0DFF90120C4E91D05D4E91E0113
:1045C000884204DB606F012800D1E565656770BD36
:1045D00010B504462DED028BB0EE408A0BF098F931
:1045E000CB49002220B918EE100ACE4B984202DDCA
:1045F0000A614A6102E00869002808D1486920443C
:104600004861B0F5FA7F02DD0120C1E90402BDEC8A
:10461000028B10BDF0B58DB00D46144606466946B6
:104620000BF06DFF09AA314628460BF097FD29468D
:1046300030460BF070FD0021EC460DF1240E0023F6
:104640001A46184601EB41073D180EEB80065CF850
:1046500025507668401CC5FB06320328F4DB980F12
:1046600040EA820044F82100491C0329E7DB0DB031
:10467000F0BDA7490020C1F88C00704710B590ED3F
:10468000000AD0ED010AB8EEC00AB8EEE01AF8EE62
:10469000E00A20EE000A01EE200AD0ED020AB8EE90
:1046A000E01AF8EEE00A01EE200A09F018FBDFED4F
:1046B0009E0A20EE200A10BD00229549012330B148
:1046C000012810D0C1F8983041F88C2F31E081EDED
:1046D000280A81ED290A9FED950A81ED2A0AE1E970
:1046E00024328A607047D1ED280A91ED271A70EEC6
:1046F000600AF0EEE00AF4EEC10AF1EE10FA16D20A
:10470000D1F89400401CC1F89400D1ED290A312859
:1047100030EE800A81ED290AE4DD0220DFED840A13
:10472000C1F8900080EE201A81ED2A1A704741F8F6
:10473000902F4A6070472DE9F04798462DED088B81
:104740008AB017468A4604469FED788A0025704E47
:10475000039504950595D6F8880000287DD00BF0C8
:1047600095F910B103A80BF061F9D6F880004FF06D
:104770000109002817DDC6F884900BF087F948B1CD
:1047800003A80BF08BF98009B0F5C87F02D2D6F8E8
:10479000800004E0D6F88000001BC6F880000028E6
:1047A00001DCC6F884500BF0A9FB002855D000208E
:1047B0009FED5D9A57F8201000EE101A58F820105F
:1047C000401CB8EEC00A032860EE090A00EE101A79
:1047D000B8EEC00A20EE800A00EE098AEADB38460D
:1047E000FFF74CFFF0EE408A4FF07E5788EE280A24
:1047F000F7EE00AA10EE100AB84201DDB0EE6A0A28
:1048000010EE100ADFF82C81BFEE00BA404501D946
:10481000B0EE4B0A08F0B0FCD6F88C00B0EE40AA1F
:1048200098B196ED000AB4EEE80AF1EE10FA0CDD4C
:1048300096ED010AB4EEE80AF1EE10FA05D2B0EEF8
:104840004A0AD6F89000FFF737FF68460BF0AEF93A
:104850002F490C22AC31684600E0E2E001F092FC06
:1048600018B9D6F8980001286BD129489DE80E00A8
:10487000AC3080E80E00009818B9019808B9029889
:10488000F0B36846FFF7FAFEB0EE408AB5EEC08A94
:10489000F1EE10FA55D0F2EE049A38EE690A20EEE5
:1048A000000A09F01CFA86ED010A38EE290A20EE0A
:1048B000000A09F014FA86ED000A9DED020AB8EE2E
:1048C000C00A60EE090AB0EE480A80EE808A18EE4F
:1048D000100AB84201DDB0EE6A8A18EE100A4045AF
:1048E00001D9B0EE4B8AB0EE480A08F045FCD6ED8F
:1048F000270A30EE600A86ED020AB0EE480A00E0B0
:1049000024E008F039FCD6ED270A30EE200A14E046
:10491000044000200000B4420000B4C20000704215
:104920007B142E3E00401C46000080370000000033
:1049300000004842000080BF03E086ED030AC6F88D
:104940008C50DFF88481F16D21B32FE01FED0D0A4B
:1049500086ED000AB3EE0E0A86ED010AD6F898003D
:10496000012808D01FED140A86ED020A1FED170A70
:1049700086ED030AE5E796ED2A0A96ED271A70EE12
:10498000410A30EE010AC6ED020A86ED030AC6F8B6
:104990009850D6E70027C6F85C9006EB0710414612
:1049A00018300AF0EBFF7F1C042FF6DB464906AAFD
:1049B0000C310F465046FFF72DFE394650460BF09E
:1049C000AAFB03A80BF06AF800EE100ADFED3F0A1D
:1049D0002046B8EE400A20EE200AFFF7F9FDF0EE7F
:1049E0004A0AB0EE680AFFF7BDFDD6E91E0188420B
:1049F00001DA2044B067706F90B9306E20443066A1
:104A0000B0F57A7F0CDD304930223039A1F1100049
:104A1000356601F05AFC2C48414610380AF0AEFFCA
:104A2000706F0AB0BDEC088BBDE8F08770B588B038
:104A3000044604A80AF0CAFFD4E93001451A6846C2
:104A40000AF05AFF064604AB04F1A0026946284664
:104A5000FFF771FE0BF0A0FF08B0304670BD0422D6
:104A60004FF49671AFF23B000BF0B6BDAFF24300CE
:104A70000CF058B910B5FFF753FD00280DD11248BE
:104A800000215838C0F88C100121C0F88810AFF20E
:104A90003100BDE810400BF063BE10BD10B5AFF2A1
:104AA00073000CF03FF9AFF27B00BDE810400CF052
:104AB00039B9054901205839C1F88C0000207047E8
:104AC00001485838406F70475C4000200000803C2F
:104AD000F0B51D462DED028B99B090ED000AD0ED9A
:104AE000010A1746B8EEC00AB8EEE01AF8EEE00A7E
:104AF0000E4620EE000A044601EE200AD0ED020A1E
:104B0000B8EEE01AF8EEE00A01EE200A09F0E7F844
:104B1000F0EEC00A10EE900AB0F18D4F7EDDD6EDBA
:104B2000000AB8EEE01ADFEDFE0A21EE201A8DED44
:104B3000041A96ED011AB8EEC11A21EE201A8DED75
:104B4000051A96ED021AB8EEC11A21EE201A8DED63
:104B5000061A96ED031AB8EEC11A61EE200ACDEDE1
:104B6000070A9FEDF08A10AA8DED0C8AD4ED000A99
:104B70000CA904A8F8EEE00A80EE801A8DED0D1A5B
:104B8000D4ED010AF8EEE00A80EE801A8DED0E1ADF
:104B9000D4ED020AF8EEE00A80EE801A8DED0F1ACD
:104BA0000BF035FB14A904A80BF0C1FA6A4614A94E
:104BB00010A80BF02CFB9DED021ADDED010ADA497D
:104BC00021EE010A00EEA00A10EE100A884202DA75
:104BD0009FEDD60A11E010EE100AD549884202DA9C
:104BE0009FEDD40A09E010EE100AD349884202DA98
:104BF000B5EE000A01E09FEDD10A01EE907AB8EE21
:104C0000E12ADFEDCF2A8DED088AC2EE221A21EECD
:104C1000800A21EE001A8DED091A00E038E020EE3E
:104C2000C00A6A4604A98DED0A0A8DED0B8A08A810
:104C30000BF0EDFA6A4604A910460BF04BFA6846F1
:104C40000BF04EFBDDED000A9FEDBE0A60EE800A20
:104C5000FDEEE00AC5ED000ADDED010A60EE800A16
:104C6000FDEEE00AC5ED010ADDED020A60EE800A04
:104C7000FDEEE00AC5ED020ADDED030A20EE800A32
:104C8000BDEEC00A85ED030A19B0BDEC028BF0BD84
:104C900096E80F0085E80F00F6E72DE9F0410C4695
:104CA0002DED068B054690ED000AD0ED010AB8EE19
:104CB000C00AB8EEE01AF8EEE00A20EE000A01EEB3
:104CC000200AD0ED020AB8EEE01AF8EEE00A01EE92
:104CD000200A09F004F810EE100A4FF07E58002662
:104CE0004FF0804740453FDDD5ED020AB7EE009A10
:104CF000F8EEE00AC0EE808A39EE680A9FED89AAD4
:104D0000B5EEC00AF1EE10FA01DCB0EE4A0AF6EE9A
:104D1000009A20EE290A08F0E2FFB0EE408A38EE51
:104D2000890AB5EEC00AF1EE10FA01DCB0EE4A0ACB
:104D300020EE290A08F0D3FFF0EE408A95ED000A34
:104D4000B8EEC00A60EE000A95ED010AB8EEC01A8E
:104D5000B8EEC00A41EE000AB0EE600A08F0BFFFEC
:104D600010EE100A404503DCC4E90076A66025E099
:104D7000DFED740A28EEA01ABDEEC11A84ED001A08
:104D800095ED011AF8EEC11A81EE801A21EE081A8B
:104D900061EE200AFDEEE00AC4ED010AD5ED000A3D
:104DA000F8EEE00A80EE801A21EE080ADFED660ACE
:104DB00020EE200ABDEEC00A84ED020AE660BDECDA
:104DC000068BBDE8F08170B590ED000AD0ED010AC8
:104DD0000546B8EEC00AB8EEE01AF8EEE00A0C4656
:104DE00020EE000A01EE200AD0ED020AB8EEE01A29
:104DF000F8EEE00A01EE200AD0ED030AB8EEE01A60
:104E0000F8EEE00A01EE200AB5EEC00AF1EE10FA63
:104E100007D84FF08040206000206060A060C8602C
:104E200070BD08F05CFFB7EE001AC1EE000A9FEDFE
:104E3000450A20EE800AD5ED000AF8EEE00A60EEA1
:104E4000800AFDEEE00AC4ED000AD5ED010AF8EE95
:104E5000E00A60EE800AFDEEE00AC4ED010AD5ED3D
:104E6000020AF8EEE00A60EE800AFDEEE00AC4ED08
:104E7000020AD5ED030AF8EEE00A20EE800ABDEE44
:104E8000C00A84ED030A70BD70B5044690F8300086
:104E900088B040067ED5A069002801DB014600E00D
:104EA00041424FF480320026284D91420BDAE169ED
:104EB000002900DA4942914205DA216A002900DA24
:104EC0004942914267DB002800DA40424FF4C801B2
:104ED00088420BDCE069002800DA4042884205DCA9
:104EE000206A002800DA4042884201DD032000E009
:104EF0000220A863696BA06A814242D0686394ED86
:104F00000A0A9FED131AF8EEC00A80EE810ADFED5F
:104F1000110A20EE200A10EE100A10F047F91BE0EB
:104F2000000080300000000017B75139A69BC43B39
:104F30000AD7233C8FC2753DCDCC4C3ECDCCCC3E68
:104F40000014CD470000804E000080CEBC40002001
:104F5000002474490000004E9FEDFA1B53EC112B06
:104F60000FF02EFE9FEDF91B53EC112B0FF028FED6
:104F70009FEDF81B53EC112B0FF0F8FB0FF08AFD9F
:104F800028630496296BA0690BF07DF80590296BC6
:104F9000E06901E022E023E00BF075F80690296B50
:104FA000206A0BF070F807906A4604A9EB480BF0F2
:104FB000D5F80098E94A800100900198694680017F
:104FC000019002988001029003988001039010469E
:104FD0000BF06EF8E1490846FFF7F5FE08B070BD2A
:104FE000AE63FBE770B504462DED048B8EB0D0F8B0
:104FF0002001410676D5D94DD4F81011D84B2A6836
:10500000891AD4F82C215A438A4201DA032100E09C
:105010000221A963800504F5887602D5CF49304680
:10502000B5E0002107A80AF00FFDCC490C223C3165
:1050300007A801F0A7F820B9D4F82801A96D884283
:105040007ED020886B4680B207AA616A0AF0DAFA3D
:105050009DED000ADDED010AB8EEC00AB8EEE01AD7
:10506000F8EEE00A20EE000A01EE200ADDED020A69
:10507000B8EEE01AF8EEE00A01EE200A08F02FFE82
:10508000B0EE408A9FEDB70A68EE000A9FEDB61AAF
:1050900080EE810ADFEDB50A20EE200AD4ED4A0A3F
:1050A000F8EEE00A60EE800A1FED571A80EE810AE2
:1050B000F6EE000A20EE209AB0EE490A08F074FAE3
:1050C000F0EE408AB0EE490A08F004FD18EE100A2E
:1050D0004FF08041884206DA0020C5E912102865A9
:1050E000686532E055E05FED690A68EEA00AFDEE02
:1050F000E00AC5ED120A5FED6C0A20EE200ADDED34
:10510000000AF8EEE00A60EE200A80EE881AFDEE52
:10511000C10AC5ED130ADDED010AF8EEE00A60EE02
:10512000200A80EE881AFDEEC10AC5ED140ADDEDF5
:10513000020AF8EEE00A20EE200AC0EE080A00E0BB
:105140000DE0BDEEE00A85ED150A07AB93E8070018
:1051500005F13C0383E80700D4F82801A8657F49DE
:1051600003AA483130460AF0F9FF7C480AAA5C30AD
:1051700003A904460AF0F2FF214630460AF0CBFFAD
:1051800003AA0AA975480AF0E9FF744903A8FFF7C2
:105190001AFE0EB0BDEC048B70BD1FB50446694607
:1051A0006E480AF0B8FF6D4A6946203220460AF080
:1051B000D5FF6A491DCC103181E81D001FBD2DE9C6
:1051C000F0470446654E90F8740006F15C0A06F15B
:1051D0002008012500F05001103692B004F58879BE
:1051E00004F15C07402906D094F8200100F050003B
:1051F00040280DD01DE031463846FFF74EFDB4F88B
:105200002001C0050CD5514648460AF084FF07E04E
:10521000514648460AF07FFFB4F87400C00508D52F
:1052200069464E480AF077FF4246694630460AF022
:1052300095FFB4F82001C005204602D5FFF7D2FE45
:1052400001E0FFF721FE3246444940460AF086FF5E
:1052500094F8740040066FD5208EB4F820110843EE
:10526000C0056DD50FAA394630460BF027F9D4E9B1
:10527000172080FB0001C2FB0201626E374FC2FBA8
:1052800002014FF08042801A71F1020014DB04A881
:105290000AF04CFCDDE9042080FB0001C2FB0201A6
:1052A000069AC2FB02014FF08042801A71F102009F
:1052B00002DB0420B8630BE0B86B042808D041F28D
:1052C0008832022806D0032804D0012852D009E0F1
:1052D000002507E0E16E91FBF2F5012D00DA0125D2
:1052E000032800D0AD0022480024454310980794BD
:1052F000800229460AF0C7FE08900F9829464042CE
:1053000080020AF0C0FECDE909040BAA314607A8C5
:105310000AF024FF32460BA910460AF0C9FE3146B6
:105320000846FFF750FD69460C480AF0F4FE424675
:10533000694630460AF012FF12B00020BDE8F0873F
:1053400020E00000112D4454FB2109400000000022
:10535000000070400000000000806640BC4000205B
:1053600071981C00DB0F4940000034430000803777
:10537000A69BC400E06E90FBF2F0012800DA012049
:105380004500AFE7334619463846E26EFFF7A0FB0B
:10539000C9E770B50446008EC105D4F8200107D4D2
:1053A000B4F87410C90503D4C10501D4002070BD40
:1053B000C0F30120032807D02046FFF700FF234851
:1053C000A16B0BF09DFCF1E704F588711F482EC915
:1053D00080E82E00F3E71E480BF0A4BC1B4810B574
:1053E0006C21103800F0D8FF18484FF08041103879
:1053F000016101600162C163C165002010BD1848F0
:1054000010B5082213A1006800F0BCFE08B13220DC
:1054100010BD1322BDE81040C8210D480BF0DCB8C8
:1054200010B5FFF7DBFF002805D1AFF22D00BDE876
:1054300010400BF095B910BD10B505480BF072FC8B
:10544000AFF24500BDE810400BF09EBCCC40002000
:1054500093530008654D504C20352E31000000005C
:105460001428002000209FEDFE0AFE4ADFEDFE0A10
:1054700002EB8001401C81ED080AC0B2C1ED0B0AAD
:105480000328F5D37047F74A002002EB8001D1EDE5
:10549000080A91ED2D0AF4EEC00AF1EE10FA01D2DD
:1054A00081ED080AD1ED0B0AF4EEC00AF1EE10FA14
:1054B00001DD81ED0B0A401CC0B20328E5D3704723
:1054C0003EB50B46B0F8481009040091B0F84A10F8
:1054D000009A09040191B0F84C1009040291E149C5
:1054E0004C6E121B0092019A8C6E121B0192029A52
:1054F000C96E511A0291816EB0F844006A4680B2BA
:105500000AF080F83EBDF0B5D64F00242546D7F806
:1055100094208DB02E46012A01D1C7F8946009A9C4
:10552000FFF7CEFF05A80AF051FA05990998602205
:10553000A0EBA130099006990A98A0EBA1300A903F
:1055400007990B98A0EBA130C8490B90081F00F0F9
:10555000BCFE0DF1240CC5489CE80E00143080E818
:105560000E0068460AF0E2FAC04960226C31081F5A
:1055700000F0ABFEBD489DE80E00803080E80E00D4
:1055800000210922D7F82C04401CC7F82C0401EB99
:10559000410007EB8000DDF800C0D0F84C33491C17
:1055A00093FBF2F31C44D0F85033092993FBF2F338
:1055B0001D44D0F8543393FBF2F31E44D0F8B833B3
:1055C00093FBF2F363440093D0F8BC33DDF804C0DE
:1055D00093FBF2F363440193D0F8C003029B90FB6A
:1055E000F2F018440290CDDB002C00DA6442002D6A
:1055F00000DA6D42002E00DA76420098002800DAC8
:10560000404200900198002800DA40420190029840
:10561000002800DA40420290009900208C4200DA13
:10562000012001998D4200DA401C02998E4200DA75
:10563000401CD7F82C14092900DB401C04280DD18C
:1056400097F8240402280BD901468648D7F8282465
:1056500064300BF007F901200BF0FEF80DB0F0BD3F
:105660000BF0E8F8FAE72DE9F0417E4D00272DED2B
:10567000048B06463C4685F824749FED7D9B9FED88
:105680007E8BC5F8287405EB8400D5ED0F0A90EDEC
:10569000330AB4EEE00AF1EE10FA1EDB95ED140BBE
:1056A00053EC182B51EC100B0FF096FC41EC100B47
:1056B00008F022F853EC192B51EC100B0FF044FAC0
:1056C0000BD295F824040121401C85F82404D5F858
:1056D0002804A1400843C5F82804641CE4B2032C44
:1056E000D1D395F82404B8B3002406EBC40090EDA0
:1056F000000B51EC100B0FF0CDF905EB8401641C8D
:10570000E4B24866032CF0D3C5F82C74A8680428CA
:1057100002DA95F82404A86095F8240403281BD124
:105720005749E868884217DC95ED140B53EC182BA9
:1057300051EC100B0FF050FC41EC100B07F0DCFFAC
:1057400053EC192B51EC100B0FF0FEF904D2A868A2
:10575000032801D10420A8604A49286988421DDA3B
:105760004949E868884219DC95ED140B53EC182B75
:1057700051EC100B0FF030FC41EC100B07F0BCFFAC
:105780009FED421B51EC100B53EC112B0FF0DCF989
:1057900004D2A868042801D10520A860BDEC048BC0
:1057A000BDE8F0812DE9F0412E4C0746D4F8A40461
:1057B000012802D000252846F2E73649F7EE000A14
:1057C000A1F1E800B7EE000A0646FBF7B2FA254A57
:1057D0003046503202F5AC71FBF74DFD0500EAD0C2
:1057E0006068401C606094ED140B51EC100B0FF0DE
:1057F00051F9B96E0AF047FC00EE100ADFED260AF7
:10580000B8EEC00A20EE200A10EE100A0FF0CEFC0F
:10581000C4E9140194ED6A0B51EC100B0FF03AF946
:10582000A06594ED6C0B51EC100B0FF033F9E065B3
:1058300094ED6E0B51EC100B0FF02CF9206694EDEB
:10584000680B9FED161B51EC100B53EC112B0FF056
:10585000B5FAB0D231469FED130AF0EE400A23E0CC
:1058600000401CC62841002000401C46784400200F
:105870009A9999999999B93F000000000000F03F6A
:10588000AE47E13D00007A43BC74933C9CC420B019
:105890007268913FF0420020000080370000000055
:1058A0000070A740CDCCCC3E0846FBF742FA82E719
:1058B000D0ED030A90ED040A00210122F4EEC00AA3
:1058C0000223F1EE10FA12DD90ED051AF4EEC10A92
:1058D000F1EE10FA0BDDB4EEC10A0164F1EE10FA3C
:1058E00002DBC0E911237047C0E911327047B4EE02
:1058F000E00AF1EE10FA12DD90ED051AB4EEC10ADD
:10590000F1EE10FA0BDDF4EEC10A0264F1EE10FACA
:1059100002DBC0E911137047C0E911317047F4EEA2
:10592000C00A0364F1EE10FA02DBC0E911127047FD
:10593000C0E911217047002319469FEDFE0AC36498
:1059400000EB8102491C82ED000A82ED090A03295D
:10595000F6DB0121C0E91D13704730B50446142061
:10596000A0650A202066002584F870502046FFF7C5
:10597000E2FF656530BD70B52DED048B86B06946DC
:10598000FFF79EFD9FEDEC8B1FED3D9A00246E46C8
:1059900003AD56F8240000EE100A05EB8400B8EEC3
:1059A000C00A20EE090A80ED000A20EE000A10EE7F
:1059B000100A0FF0FBFB53EC182B0EF023FE41EC0A
:1059C000180B641C032CE4DBB0EE480AF0EE680A06
:1059D00008F048F9DA4EB0EE408AF0EE608A002412
:1059E00055F824000FF0E2FB53EC182B0EF0BEFE2E
:1059F0000EF0D6FD00EE100A06EB840000F5806084
:105A0000641CD0ED0C0A032C30EE200A80ED0C0A49
:105A1000E6DBD6F88404401CC6F884040120C6F8EE
:105A2000AC0406B0BDEC048B70BD70B505462DED21
:105A3000028B86B004AA03A968460AF027FA9FEDF4
:105A4000BE8B00246E4606EB840090ED000A20EE2B
:105A5000000A10EE100A0FF0A9FB53EC182B0EF001
:105A6000D1FD41EC180B641C032CECDBB0EE480AB2
:105A7000F0EE680A08F0F6F8B0EE408AF0EE608AC0
:105A8000002456F824000FF091FB53EC182B0EF075
:105A90006DFE0EF085FD00EE100A05EB8400641C1F
:105AA000D0ED000A032C30EE200A80ED000AE8DB7E
:105AB000686D401C68650120E86706B0BDEC028B8C
:105AC00070BDF0B504460021F7EE001A9FED992A4B
:105AD00094ED140A04EB8100B8EEC01AD0ED000A70
