:020000040800F2
:10000000B0260020FD0700080508000807080008C2
:10001000090800080B0800080D080008000000008F
:100020000000000000000000000000006907000858
:100030001108000800000000D5070008E5070008C7
:100040001708000817080008170800081708000814
:100050001708000817080008170800081708000804
:1000600017080008170800081708000817080008F4
:1000700017080008170800081708000817080008E4
:10008000170800081708000817080008B938000802
:10009000E938000817080008170800081D1D0008A7
:1000A00017080008170800081708000817080008B4
:1000B00017080008170800081708000817080008A4
:1000C0001708000817080008170800081708000894
:1000D0001708000817080008D1350008170800089D
:1000E000170800081708000817080008DFF80CD0E8
:1000F00001F00CF80048004705460008B026002033
:100100000246D2E84F0FC2E8431F03B1F9E7704738
:10011000024652E8000F40EA010042E8000303B142
:10012000F7E7704710B5024652E8000F20EA0104D5
:1001300042E8004303B1F7E710BD10B5024652E8AC
:10014000000F00EA01048C4203D0BFF32F8F002080
:1001500010BD20EA010442E8004303B1EFE710BDFF
:1001600010B5024652E8000F084203D1BFF32F8FAB
:10017000002010BD20EA010442E8004303B1F1E78A
:1001800010BD024652E8000F411C42E8001303B1C3
:10019000F8E7704710B50246D2E85F0F814202D8F7
:1001A000BFF32F8F10BD441CC2E8534F03B1F3E7D8
:1001B00010BD10B50246D2E85F0F441CA14200D822
:1001C0000024C2E8534F03B1F5E710BD024652E8E0
:1001D000000F411E42E8001303B1F8E770470246E2
:1001E00052E8000F10B9BFF32F8F7047411E42E84D
:1001F000001303B1F4E770470246D2E85F0F10B96D
:10020000BFF32F8F7047411EC2E8531F03B1F4E7BD
:100210007047024652E8000F10B9BFF32F8F7047A6
:10022000016842E8001303B1F4E7704702680A600E
:10023000BFF35F8F50E8002F0B689342F6D140E880
:10024000001303B1F2E770470246D2E84F0FC2E84D
:10025000431F03B1F9E77047024652E8000F40EA36
:10026000010042E8000303B1F7E7704710B502460A
:1002700052E8000F20EA010442E8004303B1F7E727
:1002800010BD10B5024652E8000F00EA01048C428E
:1002900003D0BFF32F8F002010BD20EA010442E8F5
:1002A000004303B1EFE710BD10B5024652E8000F5E
:1002B000084203D1BFF32F8F002010BD20EA0104B4
:1002C00042E8004303B1F1E710BD024652E8000FD7
:1002D000411C42E8001303B1F8E7704710B502462D
:1002E000D2E85F0F814202D8BFF32F8F10BD441CAC
:1002F000C2E8534F03B1F3E710BD10B50246D2E890
:100300005F0F441CA14200D80024C2E8534F03B140
:10031000F5E710BD024652E8000F411E42E8001307
:1003200003B1F8E77047024652E8000F10B9BFF377
:100330002F8F7047411E42E8001303B1F4E7704766
:100340000246D2E85F0F10B9BFF32F8F7047411EEE
:10035000C2E8531F03B1F4E77047024652E8000FAA
:1003600010B9BFF32F8F7047016842E8001303B143
:10037000F4E7704702680A60BFF35F8F50E8002F10
:100380000B689342F6D140E8001303B1F2E77047DF
:100390000246D2E84F0FC2E8431F03B1F9E77047A6
:1003A000024652E8000F40EA010042E8000303B1B0
:1003B000F7E7704710B5024652E8000F20EA010443
:1003C00042E8004303B1F7E710BD10B5024652E81A
:1003D000000F00EA01048C4203D0BFF32F8F0020EE
:1003E00010BD20EA010442E8004303B1EFE710BD6D
:1003F00010B5024652E8000F084203D1BFF32F8F19
:10040000002010BD20EA010442E8004303B1F1E7F7
:1004100010BD024652E8000F411C42E8001303B130
:10042000F8E7704710B50246D2E85F0F814202D864
:10043000BFF32F8F10BD441CC2E8534F03B1F3E745
:1004400010BD10B50246D2E85F0F441CA14200D88F
:100450000024C2E8534F03B1F5E710BD024652E84D
:10046000000F411E42E8001303B1F8E7704702464F
:1004700052E8000F10B9BFF32F8F7047411E42E8BA
:10048000001303B1F4E770470246D2E85F0F10B9DA
:10049000BFF32F8F7047411EC2E8531F03B1F4E72B
:1004A0007047024652E8000F10B9BFF32F8F704714
:1004B000016842E8001303B1F4E7704702680A607C
:1004C000BFF35F8F50E8002F0B689342F6D140E8EE
:1004D000001303B1F2E770470246D2E84F0FC2E8BB
:1004E000431F03B1F9E77047024652E8000F40EAA4
:1004F000010042E8000303B1F7E7704710B5024678
:1005000052E8000F20EA010442E8004303B1F7E794
:1005100010BD10B5024652E8000F00EA01048C42FB
:1005200003D0BFF32F8F002010BD20EA010442E862
:10053000004303B1EFE710BD10B5024652E8000FCB
:10054000084203D1BFF32F8F002010BD20EA010421
:1005500042E8004303B1F1E710BD024652E8000F44
:10056000411C42E8001303B1F8E7704710B502469A
:10057000D2E85F0F814202D8BFF32F8F10BD441C19
:10058000C2E8534F03B1F3E710BD10B50246D2E8FD
:100590005F0F441CA14200D80024C2E8534F03B1AE
:1005A000F5E710BD024652E8000F411E42E8001375
:1005B00003B1F8E77047024652E8000F10B9BFF3E5
:1005C0002F8F7047411E42E8001303B1F4E77047D4
:1005D0000246D2E85F0F10B9BFF32F8F7047411E5C
:1005E000C2E8531F03B1F4E77047024652E8000F18
:1005F00010B9BFF32F8F7047016842E8001303B1B1
:10060000F4E7704702680A60BFF35F8F50E8002F7D
:100610000B689342F6D140E8001303B1F2E770474C
:100620000246D2E84F0FC2E8431F03B1F9E7704713
:10063000024652E8000F40EA010042E8000303B11D
:10064000F7E7704710B5024652E8000F20EA0104B0
:1006500042E8004303B1F7E710BD10B5024652E887
:10066000000F00EA01048C4203D0BFF32F8F00205B
:1006700010BD20EA010442E8004303B1EFE710BDDA
:1006800010B5024652E8000F084203D1BFF32F8F86
:10069000002010BD20EA010442E8004303B1F1E765
:1006A00010BD024652E8000F411C42E8001303B19E
:1006B000F8E7704710B50246D2E85F0F814202D8D2
:1006C000BFF32F8F10BD441CC2E8534F03B1F3E7B3
:1006D00010BD10B50246D2E85F0F441CA14200D8FD
:1006E0000024C2E8534F03B1F5E710BD024652E8BB
:1006F000000F411E42E8001303B1F8E770470246BD
:1007000052E8000F10B9BFF32F8F7047411E42E827
:10071000001303B1F4E770470246D2E85F0F10B947
:10072000BFF32F8F7047411EC2E8531F03B1F4E798
:100730007047024652E8000F10B9BFF32F8F704781
:10074000016842E8001303B1F4E7704702680A60E9
:10075000BFF35F8F50E8002F0B689342F6D140E85B
:10076000001303B1F2E770471EF0040F0CBFEFF364
:100770000880EFF30980816911F8021CD9B901B52D
:1007800090E80F10E047BDE800508CE80300194BDB
:1007900093E80600914208BF704719B12CE9F00FA9
:1007A000C1F838C01A60906BB0E8F00F80F3098888
:1007B0006FF0020E7047104A13689942FAD801B5DB
:1007C00052F821C00FC8E047BDE80050CCF8000047
:1007D0007047000001B504F05FFCBDE80140EFF395
:1007E000098CD4E701B504F047FFBDE80140EFF301
:1007F000098CCCE7E4200020DC7400080648804720
:1008000006480047FEE7FEE7FEE7FEE7FEE7FEE7F5
:10081000FEE7FEE7FEE7FEE7BD340008ED00000856
:1008200040EA01039B0703D009E008C9121F08C072
:10083000042AFAD203E011F8013B00F8013B521EF2
:10084000F9D27047D2B201E000F8012B491EFBD269
:1008500070470022F6E710B513460A4604461946CB
:10086000FFF7F0FF204610BDF0B480EA0102D40F7C
:100870004200B2EB410F02D20246084611464A003E
:1008800042D0C30DDDB2C1F3C752AD1A202D35DA07
:10089000C1F3160141F4000204B15242C5F1200631
:1008A00002FA06F12A411044B3EBD05F23D0C4B161
:1008B000012DA0EBC35009DCF0BC4FF0004202EA6E
:1008C000C352DBB200F5000000F014BB400000F1A1
:1008D000807000EBC350A0F1807040EAD1704900F5
:1008E00009E0490841EAC071A0EBC35000F50000DF
:1008F000400800EBC350F0BC00F0F3BA61420122A3
:1009000002EB4101001BF6E7F0BC704781F00041AB
:10091000AAE780F00040A7E780EA010210B502F0E4
:100920000043400022D04A001FD0010E01EB1261AB
:10093000C0F35600C2F3560240F4000042F4000235
:10094000A0FB022000047F39140400D0401C50EAB0
:10095000124001D44000491EC2B20C0604EBD01074
:10096000401C4008802A02D003E0002010BD20F087
:100970000100002900DA0020184310BD30B480EADD
:10098000010202F0004530F0004221F0004013D097
:1009900090B1C30DD40DC2F31601C0F31600E41AD2
:1009A00041F4000140F400027D34914201D3641C03
:1009B00000E04900002C02DA30BC002070474FF400
:1009C00000000023914201D3891A034340084FEAF3
:1009D0004101F7D151B1914202D14FF0004105E000
:1009E00002D24FF0010101E06FF0010103EBC450AE
:1009F000284430BC00F075BA2DE9FE4F804681EAEC
:100A00000300C00F0C46009021F0004123F0004588
:100A1000B8EB0200A94105D24046214690461C464B
:100A20000B46024623F00040104347D0270DC7F382
:100A30000A00C3F30A510290401A019040286BDA71
:100A4000C3F3130040F4801B0098924620B10023AA
:100A5000D2EB030A63EB0B0B01985946C0F140023D
:100A6000504600F00DFA06460D4650465946019A8A
:100A700000F025FA10EB08006141002487EA1152CA
:100A800084EAE7731A4340D0009A62B3019A012ABC
:100A90004FEA075215DC001B61EB02014FF00042E8
:100AA00002EA0752CDE90042001C41F580113246AE
:100AB0002B4600F05CFA03B0BDE8F08F40462146BB
:100AC000F9E7001B61EB0201001C41F580130018DF
:100AD0005B412018A2F5001747EB030140EAD570EF
:100AE000B6196D4111E06D084FEA360645EAC0754A
:100AF0004FEA0752001B61EB0201001C41F5801117
:100B000049084FEA30000019514132462B4603B0E4
:100B1000BDE8F04F00F01CBA00980122400000230D
:100B2000D0EB020263EBE073009821464FEAE074D9
:100B3000B8EB000061EB0401E9E783F000435BE7F9
:100B400081F0004158E72DE9FE4F81EA030404F0EB
:100B5000004421F0004100944FF0000B23F00043CB
:100B600050EA01045ED052EA03045BD0C3F30A5496
:100B7000C1F30A552C44A4F2F3340194A0FB0254AF
:100B8000C1F3130141F48011C3F3130343F4801341
:100B900001FB024400FB034E840A970A44EA815495
:100BA00047EA8357A4FB076802958D0A05FB078572
:100BB0004FEA932C04FB0C542705029D4FEA06587C
:100BC00047EA1637B5EB08056EEB070C870E920E59
:100BD00047EA811742EA8312A7FB0201B6EB0B0139
:100BE00064EB00042B0D43EA0C335E1844EB1C50FD
:100BF000DA465146E7FB0201C5F313044FEA0B3313
:100C000043EA14534FEA0432019C43EA0603A4F179
:100C10000C040294009CCDE900B400F0A8F903B0E4
:100C2000BDE8F08F00200146F9E72DE9F04D81EA9B
:100C3000030404F0004B21F0004514464FF0000A75
:100C400023F0004150EA050220D054EA01021DD0F1
:100C5000C5F30A570246C5F31303C1F31300C1F3EA
:100C60000A5640F4801543F48013A7EB0608101BC6
:100C7000D64608F2FD3873EB050002D308F10108EF
:100C800001E092185B41B8F1000F03DA0020014641
:100C9000BDE8F08D00204FF48011064684460EE03A
:100CA000171B73EB050705D3121B63EB0503064304
:100CB0004CEA010C49084FEA300092185B4150EAB7
:100CC0000107EDD152EA030012D082EA040083EA60
:100CD0000501084305D0101BAB4106D201220023B9
:100CE00006E000224FF0004302E06FF001025310D3
:100CF0001AEB06004CEB085110EB0A0041EB0B011C
:100D0000BDE8F04D00F024B9C10F80EAE07008445E
:100D1000CA079623002100F0EDB80EB5C10F80EA96
:100D2000E0700844CA07002140F233438DE80E000A
:100D30000A460B4600F01BF903B000BD0EB540F2A9
:100D4000334102910021CDE900110A460B4600F023
:100D50000EF903B000BD00F0004220F00040C10DCC
:100D6000C0F3160040F400007F2901DA002070472C
:100D7000962903DCC1F19601C84001E0963988400C
:100D8000002AF4D04042704770B5C1F30A5201F016
:100D900000450024C1F3130140F2FF3341F48011F8
:100DA0009A4201DA002070BD40F233439A42A2F227
:100DB000334203DC524200F072F800E090402C43D2
:100DC000F1D0404270BDC1F30A5210B5C1F3130116
:100DD00040F2FF3341F480119A4201DA002010BD45
:100DE00040F233439A42A2F2334203DC524200F013
:100DF00056F810BD904010BD00F0004230F00040A9
:100E00000AD0C10D01F56071C0F3160042EA01512C
:100E1000C20840071143704700200146704701F0A7
:100E2000004330B421F0004150EA010206D00A0D1F
:100E3000A2F56072C1F31301002A02DC30BC00206D
:100E40007047440F44EAC104C100E01830BC00EB15
:100E5000C25000F046B80000002801DBC0F100409D
:100E6000002901DBC1F1004181427047002801DB0C
:100E7000C0F10040002901DBC1F100418842704708
:100E8000202A04DB203A00FA02F10020704791404A
:100E9000C2F1200320FA03F3194390407047202A3F
:100EA00004DB203A21FA02F00021704721FA02F314
:100EB000D040C2F120029140084319467047202AD1
:100EC00006DBCB17203A41FA02F043EAE07306E072
:100ED00041FA02F3D040C2F1200291400843194682
:100EE00070470029A8BF7047401C490008BF20F088
:100EF0000100704710B4B0FA80FC00FA0CF050EA20
:100F0000010404BF10BC704749B1CCF1200421FAA0
:100F100004F411FA0CF118BF012121430843A3EB9B
:100F20000C01CB1D4FEA00614FEA102042BF0020A8
:100F300010BC704700EBC35010440029A4BF10BC84
:100F40007047401C490008BF20F0010010BC7047EA
:100F500010B5141E73F1000408DA401C41F10001C1
:100F600092185B411A4301D120F0010010BD2DE918
:100F7000F04D92469B4611B1B1FA81F202E0B0FA0F
:100F800080F220329046FFF77BFF04460F4640EA8E
:100F90000A0041EA0B0153465A46084313D0114652
:100FA00053EA010019D0C8F140025046FFF777FF1D
:100FB00005460E46504659464246FFF761FF084334
:100FC00005D0012004E020463946BDE8F08D002020
:100FD000054346EAE0762C4337430A986305E40A62
:100FE000A0EB08000022FD0A44EA47540A3002D56B
:100FF00000200146E9E7010510196941DDE90845CE
:1010000000196941BDE8F04DA2E770B521F0004339
:1010100003430CD0C1F30A550024D5EB040564EB5F
:101020000403D617AD1AB34102DB0020014670BDA0
:10103000201841EB025170BD2DE9F04D00231A46F6
:101040001B1A8A4103DB00200146BDE8F08DC1F385
:101050000A52C1F3130141F480154FF0000BD10780
:1010600002D100186D41521E0027044640F2FF11C4
:10107000384601EB620A3E468046024600204FF4A5
:101080008011FFF70CFFC2197141BB1846EB01003C
:10109000B4EB030C75EB000C04D3E41A65EB00050C
:1010A00017460E46241908F101006D418046342888
:1010B000E3DDF91946EB0600091BA84103D24FF006
:1010C000FF32134601E0002213461BEB070046EBFC
:1010D0000A51BDE8F04DFFF73BBF000030B5041EDC
:1010E00071F1000404DB4FF00044404264EB010165
:1010F000141E73F1000405DB1C464FF000435242FE
:1011000063EB0403994208BF904230BD064C074D83
:1011100006E0E06840F0010394E8070098471034C7
:10112000AC42F6D3FEF7E6FFCC760008EC7600087A
:1011300070B58C1810F8015B15F0070301D110F899
:10114000013B2A1106D110F8012B03E010F8016BC6
:1011500001F8016B5B1EF9D12B0705D40023521E49
:101160000DD401F8013BFAE710F8013BCB1A921CB1
:1011700003E013F8015B01F8015B521EF9D5A142AF
:10118000D8D3002070BD000000B589B00121042033
:1011900002F002F80121480601F0DEFF4FF4006082
:1011A000ADF8200048208DF8230003208DF82200A0
:1011B00008A92E4800F023FE4FF48050ADF820001F
:1011C00018208DF8230003208DF8220008A9274855
:1011D00000F015FE264800F01DFA05A800F084FC7A
:1011E00000208DF81A0001208DF81F008DF81E00D8
:1011F00000208DF81C008DF81B008DF81D008DF867
:1012000016008DF8170005208DF8180004208DF8C1
:1012100019000320ADF8140005A9154800F033FBB0
:1012200000208DF80E008DF80F0001208DF81000C1
:101230000020ADF80400ADF80600ADF80800ADF8E8
:101240000A00ADF80C0001208DF8110001A800F093
:10125000FDF901220221064800F00CFB0122114693
:10126000034800F007FB09B000BD00000008014082
:101270000064004008B501210C2001F08DFF8020A2
:10128000ADF8000010208DF8030002208DF8020058
:101290006946104800F0B3FD0B20ADF800001020A7
:1012A0008DF8030002208DF8020069460A4800F01C
:1012B000A6FD0821084800F036FE8021054800F010
:1012C00032FE0121044800F02EFE0221024800F007
:1012D0002AFE08BD00080140000C014010B588B08E
:1012E00004460121042001F057FF0121480401F0C8
:1012F00033FF0420ADF81C0003208DF81E001820D9
:101300008DF81F0007A91D4800F079FD0820ADF8F1
:101310001C0004208DF81F0007A9184800F06FFD7D
:1013200001940020ADF80800ADF80A00ADF80C00FB
:10133000ADF810000C20ADF80E000020ADF8140040
:10134000ADF816004FF40070ADF818000020ADF8AD
:101350001A0005A90A4802F0BCF901A9084802F0E0
:1013600025FA012240F22551054802F0F9F9012140
:10137000034802F0BFF908B010BD000000080140AA
:101380000044004010B556480078002870D05548F9
:101390000078D0B95448C088B0F57A7F03D10120D5
:1013A0005049087011E05048C088B0F5FA6F03D179
:1013B00002204C49087008E04B48C08841F288314F
:1013C000884202D10320474908704749D1F80F00ED
:1013D0004649FFF7A1FA0446FFF7BDFC00B24449B5
:1013E00008804149D1F813004049FFF795FA0446B7
:1013F000FFF7B1FC00B23E4948803B49D1F81700E5
:101400003C49FFF789FA0446FFF7A5FC00B23849CA
:1014100008813549D1F81B003649FFF77DFA0446AB
:10142000FFF799FC00B2324948812E480078012824
:101430001FD12D48C088B0F57A7F05D0A0F2E240D8
:1014400030B1FA280CD107E001202949087307E0E0
:1014500002202749087303E003202549087300BFD1
:1014600000BF2148B0F81F0000B22149888036E053
:1014700028E01C480078022831D11B48C088B0F50C
:10148000FA6F06D0A0F6C41038B1B0F57A7F0CD14F
:1014900007E001201649087307E002201449087389
:1014A00003E003201249087300BF00BF0E48B0F8E4
:1014B0001F0000B20E4988800B48B0F8210000B22E
:1014C000C8800CE0002007490870192008490880EE
:1014D00000208880C880012008730020488110BD4A
:1014E00030200020282000201A22002000007A440A
:1014F000DC2100200000C8422DE9F0418AB00446FA
:101500000D4616461F46DDF8408004950396029767
:10151000CDF80480059400208DF81D008DF81C0086
:1015200008208DF81E009DF811008DF81F009DF811
:10153000101005A801739DF80D1041739DF80C1053
:1015400081739DF80910C1739DF8081001749DF80E
:10155000051041749DF80410817405A9024800F03B
:10156000DEFA0AB0BDE8F08100640040B1F5007F0A
:101570003AD00FDC202928D006DC01291CD0042910
:101580001DD0082940D11DE0402921D0B1F5807F30
:101590003AD126E0B1F5004F31D006DCB1F5806FCD
:1015A00025D0B1F5006F2FD124E0B1F5803F12D0E6
:1015B000B1F5003F28D111E0154A826025E00822EC
:1015C000C26022E01022C2601FE0082202611CE01B
:1015D0001022026119E00822426016E010224260E7
:1015E00013E00422426010E0042242600DE0042275
:1015F00042600AE0002282610422426005E000228B
:1016000082610422426000E000BF00BF704700001A
:101610000101010010B504460B48844209D10121A3
:10162000480601F0A9FD00214FF0007001F0A4FD73
:1016300008E00121880601F09FFD00214FF0806045
:1016400001F09AFD10BD00000064004010B50021BB
:10165000837A012202FA03F13D4A126842F0010244
:101660003B4B1A603A4A1C3212688A43384B1C338F
:101670001A60027BCAB9364A0C3212688A43344B6C
:101680000C331A604288C38842EA0343304A40322E
:10169000847A42F834300288838842EA03432C4A31
:1016A0004032847A02EBC4025360027B012A19D1D2
:1016B000274A0C3212680A43254B0C331A604288C1
:1016C000038842EA0343224A4032847A42F83430A3
:1016D000C288838842EA03431D4A4032847A02EB7F
:1016E000C4025360C27A3AB9194A121D12688A4379
:1016F000174B1B1D1A6006E0154A121D12680A439B
:10170000134B1B1D1A60028932B9114A1432126838
:101710008A430F4B14331A600289012A06D10C4AFE
:10172000143212680A430A4B14331A60427B012AAE
:1017300006D1074A1C3212680A43054B1C331A6053
:10174000034A126822F00102014B1A6010BD00002A
:101750000066004070B504460D46002660692840CA
:10176000002871D0B5F5807F5CD010DC082D35D015
:1017700006DC012D20D0022D24D0042D72D127E0CB
:10178000102D31D0202D35D0402D6BD138E0B5F55E
:10179000004F60D009DCB5F5007F49D0B5F5806F0A
:1017A0004CD0B5F5006F5DD14FE0B5F5803F2DD041
:1017B000B5F5003F56D12FE0A0682D4900F0A4FAFE
:1017C000064651E0E068032100F09EFA06464BE031
:1017D000E068082100F098FA064645E0E06810212C
:1017E00000F092FA06463FE02069032100F08CFAEF
:1017F000064639E02069082100F086FA064633E003
:101800002069102100F080FA06462DE0606808216A
:1018100000F07AFA064627E06068102100F074FABA
:10182000064621E0A069012100F06EFA06461BE0A1
:10183000A069022100F068FA064615E0A0690421BB
:1018400000F062FA06460FE00FE0A069702100F098
:101850005BFA064608E06068042100F055FA064687
:1018600002E0FFE7002600BF00E00026304670BD22
:10187000010101001AB143690B43436102E043696E
:101880008B434361704730B5024600200023146843
:1018900024F002041460146844F00104146000E0B1
:1018A0005B1C546804F001041CB94FF6FF74A3429A
:1018B000F6D1546804F001040CB900206CE08C7976
:1018C000012C04D1146844F08004146003E014680F
:1018D00024F080041460CC79012C04D1146844F005
:1018E0004004146003E0146824F0400414600C7A8F
:1018F000012C04D1146844F02004146003E014683F
:1019000024F0200414604C7A012C04D1146844F0B3
:101910001004146003E0146824F0100414608C7A3E
:10192000012C04D1146844F00804146003E0146826
:1019300024F008041460CC7A012C04D1146844F01B
:101940000404146003E0146824F0040414608C7828
:10195000A407CD7844EA05640D7944EA05444D793D
:1019600044EA05540D886D1E2C43D461146824F09C
:1019700001041460002300E05B1C546804F00104BF
:101980001CB14FF6FF74A342F6D1546804F0010471
:101990000CB1002000E0012030BD10B500F5D87377
:1019A00003EB01131B6803F004031372137A53B99A
:1019B00000F5D87303EB01131B6840F2FF7404EACF
:1019C0005353136009E000F5D87303EB01131B6850
:1019D0006FF0604404EAD303536000F5D87303EB5F
:1019E00001131B6803F00203537200F5D87303EB75
:1019F00001135B6803F00F03937200F5D87303EBD8
:101A000001135B681B0AD37400F5D87303EB011351
:101A10009B68D37200F5D87303EB01139B681C0A13
:101A2000147300F5D87303EB01139B681C0C5473FB
:101A300000F5D87303EB01139B681B0E937300F53D
:101A4000D87303EB0113DB68D37300F5D87303EB92
:101A50000113DB681C0A147400F5D87303EB01133F
:101A6000DB681C0C547400F5D87303EB0113DB68BE
:101A70001B0E937421B9C36843F02003C36003E0D5
:101A8000036943F02003036110BD000010B5044654
:101A900040F2FF312068884221D111484088401C23
:101AA0000F494880207BE17A40EA012000B20D49CD
:101AB0000880A17B607B41EA002000B20949488090
:101AC000227CE17B42EA012108B2FFF71DF90549BA
:101AD0004860A17C607C41EA00200249087210BD88
:101AE00006220020EC21002000218171C1710172C9
:101AF00041728172C1728170C17003210171022132
:101B0000417101210180704708E000F09BF801203D
:101B100002F0D4FF4FF4FA7000F0D8FEF5E710B5EC
:101B200002460020936803F08063B3F1806F00D118
:101B300010E0936803F00063B3F1006F01D101205E
:101B400008E0936803F08053B3F1805F01D1022075
:101B500000E00420042874D002F5C07303EB0013E6
:101B60001B6803F0010402F5C07303EB00131C6053
:101B70000B7A7BB94B7A0C8843EA445302F5C07464
:101B800004EB00142468234302F5C07404EB001432
:101B9000236010E00B7A4C6843EAC4034C7A234379
:101BA00002F5C07404EB00142468234302F5C074EA
:101BB00004EB001423608B7A03F00F038B7202F5A1
:101BC000C07303EB00135B6823F00F0402F5C073CE
:101BD00003EB00135C6002F5C07303EB00135B685A
:101BE0008C7A234302F5C07404EB001463608B7B92
:101BF0001C064B7B44EA03440B7B44EA0323CC7A68
:101C0000234302F5C07404EB0014A3608B7C1C0614
:101C10004B7C44EA03440B7C44EA0323CC7B234300
:101C200002F5C07404EB0014E36002F5C07303EB2B
:101C300000131B6843F0010402F5C07303EB0013AB
:101C40001C6010BDF8B529480068401C2749086091
:101C5000FFF798FB25480068012810D12448008828
:101C600000B200902348008903B22248808802B263
:101C70002048008801B24FF44070FFF73DFC1E4839
:101C8000B0F90A0000901C48B0F90830B0F9022001
:101C9000B0F9001040F20130FFF72EFC1348006845
:101CA000032822D115480068FFF755F804B21449FB
:101CB000C8681449FEF730FE0746FFF74CF805B236
:101CC0000F49C8690F49FEF727FE0746FFF743F89B
:101CD00006B2002023462A463146009040F20230E8
:101CE000FFF70AFC002001490860F8BD2C20002005
:101CF00022200020D0210020DC2100205C200020B8
:101D000054220020000020410246002002EA010384
:101D10000BB1012000E000207047000010B540200A
:101D200000F022F870B1402000F012F8402000F0DE
:101D300015F80548C088401C0349C880034800685E
:101D400003F0ACFD10BD0000062200201020002092
:101D5000014908607047000014040140014908600F
:101D60007047000014040140014600200022074B88
:101D70001B6803EA0102054B14331B680B4013B1C7
:101D80000AB1012000E0002070470000000401407B
:101D9000704770477047704770477047704770478B
:101DA000704770477047704770477047704770477B
:101DB000704770477047704770477047704770476B
:101DC000704770477047704770477047704770475B
:101DD000704770477047704770477047704770474B
:101DE000704770477047704770477047704770473B
:101DF00070477047704770477047704770472DE9CC
:101E0000F041024600250026002000230024002780
:101E100091F803C00CF00F0591F803C00CF0100C02
:101E2000BCF1000F03D091F802C04CEA050591F80F
:101E300000C0BCF1000F31D0146800202BE04FF03F
:101E4000010C0CFA00F3B1F800C00CEA03069E4244
:101E500020D183004FF00F0C0CFA03F7BC4305FAB6
:101E600003FC4CEA040491F803C0BCF1280F06D12E
:101E70004FF0010C0CFA00FCC2F814C00AE091F813
:101E800003C0BCF1480F05D14FF0010C0CFA00FC67
:101E9000C2F810C0401C0828D1D31460B1F800C0AB
:101EA000BCF1FF0F34DD546800202EE000F1080C77
:101EB0004FF0010808FA0CF3B1F800C00CEA030671
:101EC0009E4221D183004FF00F0C0CFA03F7BC4364
:101ED00005FA03FC4CEA040491F803C0BCF1280F96
:101EE00005D100F1080C08FA0CF8C2F8148091F83A
:101EF00003C0BCF1480F07D100F1080C4FF00108F6
:101F000008FA0CF8C2F81080401C0828CED35460A0
:101F1000BDE8F0810246002093680B400BB1012020
:101F200000E0002070474161704701617047000088
:101F300010B54FF480710D48FFF7F5FF01F0BCF9C3
:101F40004FF400710948FFF7EEFF022000F024F97A
:101F50004FF480710548FFF7E8FF022000F01CF9FC
:101F60004FF480710148FFF7DEFF10BD000801400B
:101F700008B50121042001F00FF94FF44070ADF8CD
:101F8000000010208DF8030003208DF80200694640
:101F90000648FFF734FF4FF480710448FFF7C5FF90
:101FA0004FF400710148FFF7C0FF08BD0008014071
:101FB00010B54FF480710D48FFF7B5FF01F07CF9C3
:101FC0004FF400710948FFF7B0FF022000F0E4F879
:101FD0004FF480710548FFF7A8FF022000F0DCF8FD
:101FE0004FF480710148FFF79EFF10BD00080140CB
:101FF00070B50546002401F049F900261BE04FF4B6
:1020000080711248FFF78FFF022000F0C5F84FF4EF
:1020100080710E48FFF789FF6006040E4FF40071CF
:102020000A48FFF777FF08B1601CC4B2012000F036
:10203000B3F8701CC6B2082EE1DB15B9FFF7B8FF84
:1020400001E0FFF775FF204670BD00000008014069
:1020500070B5044601F030F94FF480711548FFF770
:1020600062FF002523E0E00928B14FF40071114818
:10207000FFF75BFF04E04FF400710E48FFF753FFDA
:102080006006040E022000F087F84FF480710948C2
:10209000FFF74BFF022000F07FF84FF480710548F6
:1020A000FFF741FF022000F077F8681CC5B2082D49
:1020B000D9DB70BD0008014010B501F0FDF84FF408
:1020C00000710D48FFF731FF4FF480710A48FFF7A8
:1020D0002CFF042000F060F84FF400710648FFF771
:1020E00022FF042000F058F84FF480710248FFF7F7
:1020F0001AFF012010BD00000008014010B501F0DA
:10210000DBF84FF480710C48FFF70DFF4FF40071BE
:102110000948FFF708FF042000F03EF84FF48071F3
:102120000548FFF702FF4FF400710348FFF7FDFE7B
:10213000042000F031F810BD0008014010B5002463
:1021400001F0A4F84FF400711248FFF7EEFE0120F1
:1021500000F022F84FF480710E48FFF7E6FE0120F0
:1021600000F01AF807E0601CC4B2FA2C03DDFFF798
:10217000C5FF012010BD4FF400710648FFF7CAFEED
:102180000028F0D14FF480710248FFF7CCFE002008
:10219000F0E7000000080140002106E00A2100BF2E
:1021A0000A1EA1F1010399B2FAD1021EA0F10103A6
:1021B00098B2F3D17047000007E04FF0FF310348B9
:1021C000006803F003FB00F003F8F6E7102000209E
:1021D0002DE9F04F8BB009AA08A907A802F018FA58
:1021E00000287DD106AA911E05A800F0CFFB04AA05
:1021F000911E03A800F0F2FB934890F82400D8B198
:102200000020914981F82400BDF90C00FEF77CFD07
:102210008D490860BDF90E00FEF776FD8A494860D9
:10222000BDF91000FEF770FD874988600798886146
:10223000089808620998C861BDF91400FEF764FDAA
:1022400004468249FEF768FB81490860BDF9160023
:10225000FEF75AFD04467D49FEF75EFB7C49486067
:10226000BDF91800FEF750FD04467849FEF754FB0F
:10227000774988600868FEF7BFFD21F000410446F9
:10228000FEF7CDFD824672494868FEF7B5FD21F0A4
:1022900000410446FEF7C3FD83466D4948680021AE
:1022A000FEF7E4FD0AD25846FEF7A6FD00224FF0E5
:1022B0008043CDE9000103F04FFB0BE05846FEF7E9
:1022C0009BFD00224FF08043CDE9000103F044FB69
:1022D00081F0004106460F465D490868002100E094
:1022E000AEE0FEF7C3FD0AD25046FEF785FD0022A0
:1022F0004FF08043CDE9000103F02EFB0BE0504688
:10230000FEF77AFD00224FF08043CDE9000103F093
:1023100023FB81F00041804632463B46FEF76CFBD2
:102320000446FEF77CFD02900298FEF765FD21F061
:1023300000410446FEF773FD02900298FEF75CFD33
:10234000064603F0F5FF0446FEF769FD4049C86004
:10235000BDF90C00FEF7D8FC05463B48016828464D
:10236000FEF7D4FA04463B49FEF708FB38494861BA
:10237000BDF90E00FEF7C8FC054633484168284603
:10238000FEF7C4FA04463349FEF7F8FA304988618B
:10239000BDF91000FEF7B8FC05462B4881682846B9
:1023A000FEF7B4FA04462B49FEF7E8FA2849C8615B
:1023B0002948006829490860234AD1690998FEF72D
:1023C000A5FA254908602548016823480068FEF7FA
:1023D0009DFA04462249FEF749FD05D821480068C8
:1023E000401E204908600FE01C4801681A48006838
:1023F000FEF78CFA04461C49FEF72EFD04D8194856
:102400000068401C17490860164909684FF4B47207
:1024100001FB02F0FEF778FC04460999FEF724FA66
:1024200012490860084A91690798FEF76FFA104947
:102430000860054A116A0898FEF768FA0D490860B5
:102440000BB0BDE8F08F00007422002044FCC33BB9
:102450005422002033338341642000206820002070
:102460000000A543602000200000A5C354200020E8
:10247000582000205C2000202DE9F04100F07EF87B
:102480001349088000F02CF81149486000F064F806
:102490008046FEF753FC06460E4A0F4BFEF753FBF1
:1024A0000446FEF790FC0A4908810846008868B196
:1024B000084600884FF6FF71884207D00748008918
:1024C000401C064908810120BDE8F0810020FBE79F
:1024D000D02100209A9999999999B93F0622002014
:1024E0002DE9F8434FF000086946012000F08FF80D
:1024F0009DF80000C011B8B19DF801109DF80020B2
:1025000041EA0221491E09B9012100E000210846E3
:10251000FEF703FC064600220D4BFEF714FB0446B3
:10252000FEF732FC804610E09DF801109DF8002077
:1025300041EA0220FEF7F1FB06460022054BFEF7BA
:1025400002FB0446FEF720FC80464046BDE8F883C7
:102550000000F4BF0000F43F08B56946032000F016
:1025600056F89DF801009DF8001040EA012000EBAC
:1025700080004FF6FF7101EA400008BDF8B56946DA
:10258000022000F044F89DF801109DF8002041EA77
:102590000220FEF7C2FB06460022044BFEF7D3FAE8
:1025A0000446FEF7F1FB80B2F8BD00000000F43FE6
:1025B00010B5FFF7DDFC46F22751002000F001F8CE
:1025C00010BD38B505460C4620128DF80000E0B26B
:1025D0008DF80100FFF770FD8020FFF739FDFFF750
:1025E000ADFD2846FFF734FDFFF7A8FD9DF800007C
:1025F000FFF72EFDFFF7A2FD601C84B29DF80100DD
:10260000FFF726FDFFF79AFDFFF778FD38BD70B59F
:1026100005460C46FFF750FD8020FFF719FDFFF738
:102620008DFD2846FFF714FDFFF788FDFFF744FDF9
:102630008120FFF70DFDFFF781FD0120FFF7D8FC9A
:102640002070641C0020FFF7D3FC2070FFF756FDBC
:1026500070BD00BFEFF3108018B900BFEFF3118019
:1026600008B1012070470020FCE700BFEFF31080A5
:1026700018B900BFEFF3118008B1012070470020A6
:10268000FCE700BFEFF3108018B900BFEFF3118033
:1026900008B1012070470020FCE700BFEFF3108075
:1026A00018B900BFEFF3118008B101207047002076
:1026B000FCE700BFEFF3108018B900BFEFF3118003
:1026C00008B1012070470020FCE700BFEFF3058050
:1026D00008B1012070470020FCE700BFEFF3058040
:1026E00008B1012070470020FCE700BFEFF3058030
:1026F00008B1012070470020FCE700BFEFF3058020
:1027000008B1012070470020FCE700BFEFF305800F
:1027100008B1012070470020FCE7000070B50446B6
:1027200004B31148008800F40040D8B125460521C3
:10273000284604F061FC90B1B5F8010000F10901F0
:10274000284604F039FC50B108488088401C0749ED
:1027500088801E2000F0FAF8204601F0FFFE0020DD
:102760000149088070BD00001620002006220020CC
:102770001DE00F480078401C0D4908700D48FFF718
:10278000CDFF0B48007801280AD1002008490870C5
:1027900000F006FE0D2208494FF4807000F0CEFDD7
:1027A0004FF4FA7000F0B2F8052002F087F9E0E784
:1027B000142000209C210020F821002010B500F0FA
:1027C000DFFBFEF757FD08212648FFF7AEFB80210F
:1027D0002548FFF7AAFB01212248FFF7A6FB0221AB
:1027E0002048FFF7A2FBC82001F09EFCFEF7CCFCBE
:1027F0004FF4E130FEF772FDFFF7DAFE08211948C9
:10280000FFF791FB80211848FFF78DFB0121154848
:10281000FFF789FB02211348FFF785FB02F06CF9F3
:1028200008B100BFFEE7114A0021012003F010F8B3
:102830000F49086000210F4803F04CF80E4908606A
:1028400000210E4803F046F80D49086000210D48AC
:1028500003F040F80C49086002F06AF908B100BFC3
:10286000FEE710BD000C014000080140187100088F
:102870001020002028700008F81F00205070000869
:10288000FC1F0020787000080020002010B50446CE
:102890000C480088401C0B49088008460088A0426C
:1028A0000FD308210848FFF740FB06480088B0EB2B
:1028B000440F06D108210448FFF735FB00200149E9
:1028C000088010BD1A200020000C014010B50446FD
:1028D0000C480088401C0B49088008460088A0422C
:1028E0000FD380210848FFF720FB06480088B0EB93
:1028F000440F06D180210448FFF715FB0020014951
:10290000088010BD1C2000200008014010B50446BE
:102910000C480088401C0B49088008460088A042EB
:102920000FD301210848FFF700FB06480088B0EBF1
:10293000440F06D101210448FFF7F5FA00200149B0
:10294000088010BD1E200020000C014010B5044678
:102950000C480088401C0B49088008460088A042AB
:102960000FD302210848FFF7E0FA06480088B0EBD1
:10297000440F06D102210448FFF7D5FA002001498F
:10298000088010BD20200020000C01402DE9FC41F2
:1029900004460D4616466B4606223B21682000F091
:1029A00075F90746BFB99DF801009DF8001040EA8F
:1029B000012000B220809DF803009DF8021040EA3B
:1029C000012000B228809DF805009DF8041040EA1F
:1029D000012000B230803846BDE8FC812DE9FC4181
:1029E00004460D4616466B4606224321682000F039
:1029F0004DF90746BFB99DF801009DF8001040EA67
:102A0000012000B220809DF803009DF8021040EAEA
:102A1000012000B228809DF805009DF8041040EACE
:102A2000012000B230803846BDE8FC8110B500209E
:102A30000E4908600E48006820F470000C490860D8
:102A40000846006840F44010086000200949C1F8B9
:102A5000940100F011F801200449086000F00CF81E
:102A600000200449C1F8900110BD000090012142EE
:102A7000000801400000214210B5022001F064FB73
:102A800010BD000010B500200E4908600E48006817
:102A900020F470000C4908600846006840F44010BB
:102AA000086001200949C1F89401FFF7E5FF012002
:102AB00004490860FFF7E0FF00200449C1F89001D5
:102AC00010BD000090012142000801400000214299
:102AD00070B5054600241648006820F470001449BB
:102AE00008600846006840F400000860002614E012
:102AF000002010490860FFF7BFFF01200E49C1F810
:102B000090016006040E0B487C38006808B1601C18
:102B1000C4B2FFF7B1FF701CC6B2082EE8DB15B9CE
:102B2000FFF7B0FF01E0FFF781FF204670BD000016
:102B300000080140900121420000214270B5044686
:102B40001248006820F470001049086008460068C8
:102B500040F44010086000200D490860002512E094
:102B6000E0090B49091D08606006040E01200949AF
:102B7000C1F89001FFF780FF002005490860FFF7CA
:102B80007BFF681CC5B2082DEADB70BD0008014060
:102B9000900121420000214210B50E48006820F447
:102BA00070000C4908600846006840F44010086056
:102BB0000120094908600949C1F89001FFF75CFF4D
:102BC000002005490860FFF757FF00200349C1F8BE
:102BD000900110BD000801409401214200002142F3
:102BE00010B50E48006820F470000C4908600846D3
:102BF000006840F440100860002009490860094955
:102C0000C1F89401FFF738FF012005490860054924
:102C1000C1F89401FFF730FF10BD0000000801402B
:102C2000900121420000214210B5002414480068A0
:102C300020F47000124908600846006840F4000063
:102C4000086001200F490860FFF716FF01200E49B8
:102C5000C1F89001FFF710FF07E0601CC4B2FA2C26
:102C600003DDFFF7BDFF012010BD06488038006876
:102C70000028F2D10349091F086000BFF4E70000F3
:102C80000008014094012142000021422DE9F04159
:102C900006460F4614461D46FFF77EFF002141EA17
:102CA0004601C8B2FFF74AFFFFF7BEFF20B1FFF7AA
:102CB00097FF0120BDE8F0813846FFF73FFFFFF79F
:102CC000B3FFFFF769FF012101EB4601C8B2FFF72F
:102CD00035FFFFF7A9FF0DE0012C04D10020FFF71D
:102CE000F7FE287003E00120FFF7F2FE2870601E57
:102CF000C4B26D1C002CEFD1FFF772FF0020D9E7A2
:102D00002DE9F04105460E4617469846FFF744FF69
:102D1000002141EA4501C8B2FFF710FFFFF784FF29
:102D200020B1FFF75DFF0120BDE8F0813046FFF7DD
:102D300005FFFFF779FF00240CE018F80400FFF707
:102D4000FDFEFFF771FF18B1FFF74AFF0120EBE727
:102D5000601CC4B2BC42F0DBFFF742FF0020E3E797
:102D600010B502465318184610BD2DE9F04105462E
:102D700005F12800FDF7D7FA074667B1EC6A07E0CE
:102D80000121A01CFDF760FA064606B902E0A4681E
:102D9000002CF5D100E000242046BDE8F0812DE9AB
:102DA000F04105460C46286BA0B12E6B002701E0D0
:102DB000374676681EB1F078E1788842F8DB6660C5
:102DC000A7600EB1B46000E0EC620FB17C6006E079
:102DD0002C6304E000206060A060EC622C6305F1CD
:102DE0002800FDF772FABDE8F0814A681AB1D1E90E
:102DF00001329A6001E08A68C2628A681AB1D1E938
:102E000001235A6001E04A68026370476BE036486C
:102E100036490A6802604A6842600989018133487C
:102E200000210160416001812F48C0880F2806DA27
:102E30002F48008840F001002D49088005E02C480B
:102E4000008820F001002A490880274800890F28BF
:102E500006DA2748008840F002002549088008E08B
:102E60000220FFF733FD2248008820F002002049AD
:102E700008801D4880880A2809DA00201D4908704A
:102E80001B48008840F004001949088008E0012030
:102E9000184908701648008820F00400144908807A
:102EA00011480088502805DB1148008820F00800F0
:102EB0000F4908800C4840881E2805DB0C48008814
:102EC00020F010000A4908800948008820B1082134
:102ED0000948FFF72AF802E00320FFF7D7FC4FF478
:102EE000967001F0EBFD92E71022002006220020F0
:102EF0004E20002030200020000C014070B5002141
:102F000000230F22C47804B3154C246804F4E06451
:102F1000C4F5E064210AC1F10403CA40447804FA0C
:102F200003F184781440214309010E4C0678A15521
:102F3000047804F01F050124AC4005786D11AD0044
:102F400005F1E025C5F8004109E0047804F01F050B
:102F50000124AC40044D0678761145F8264070BD3A
:102F60000CED00E000E400E080E100E002490143F4
:102F7000024A1160704700000000FA050CED00E005
:102F800008B54FF4C060FFF7F1FF14208DF8000082
:102F900001208DF8010000208DF8020001208DF83D
:102FA00003006846FFF7AAFF13208DF800000120F8
:102FB0008DF801008DF802008DF803006846FFF7D8
:102FC0009DFF26208DF8000000208DF801008DF86F
:102FD000020001208DF803006846FFF78FFF1720DD
:102FE0008DF8000000208DF8010001208DF802000E
:102FF0008DF803006846FFF781FF08BD4FF0E02021
:10300000006970470948007830B10020074908700E
:103010004FF08060064908604FF0E020006940F002
:1030200001004FF0E021086170470000A12000205E
:1030300004ED00E04FF0FF307047000010B502468D
:103040000B4612B94FF0FF3010BD0D480068B0FBC1
:10305000F2F0411EB1F1807F02D34FF0FF30F3E771
:10306000FF240848C47206204FF0E0242061204667
:1030700041610020A061044C207000BFE4E7000023
:10308000B820002018ED00E0A120002008E0FFF7A4
:10309000F3F94FF4FA70FFF759FC022001F00EFD2E
:1030A000F5E7000010B580212248FEF733FF2249E2
:1030B00008800846008858B140211E48FEF733FFBB
:1030C00010211C48FEF72FFF00201C4908802AE031
:1030D0001B48408801280BD140211648FEF723FFEA
:1030E00014201649088010211248FEF71EFF1AE02E
:1030F0001348408802280BD110210E48FEF713FF19
:1031000000200E49088040210A48FEF70EFF0AE021
:1031100040210848FEF707FF10210648FEF703FF8D
:1031200000200649088005480188064800F0F6F9A5
:1031300010BD0000000C01402220002024200020AF
:10314000EC2100200004004004E0FFF7ABFF022068
:1031500001F0B4FCF9E7000029B1064AD269024344
:10316000044BDA6104E0034AD2698243014BDA611D
:10317000704700000010024029B1064A126902435C
:10318000044B1A6104E0034A12698243014B1A613D
:10319000704700000010024029B1064A92690243BC
:1031A000044B9A6104E0034A92698243014B9A619D
:1031B000704700000010024030B5002100220024BA
:1031C00000232D4D6D6805F00C0121B1042905D0B7
:1031D000082923D105E0294D056022E0274D05602F
:1031E0001FE0254D6D6805F47012234D6D6805F4E0
:1031F0008034022505EB92421CB9214D55430560F0
:103200000BE01D4D6D6805F400351DB11C4D554397
:10321000056002E0194D5543056002E0174D056059
:1032200000BF00BF144D6D6805F0F0010909154D90
:103230006B5C0568DD4045600F4D6D6805F4E0612D
:10324000090A104D6B5C4568DD4085600A4D6D686C
:1032500005F46051C90A0B4D6B5C4568DD40C560E3
:10326000054D6D6805F44041890B074D6B5CC568E1
:10327000B5FBF3F5056130BD0010024000127A0085
:1032800000093D00A2200020B220002008B5012145
:103290000420FFF781FF4FF40070ADF800004820D4
:1032A0008DF8030002208DF8020069460148FEF700
:1032B000A6FD08BD0008014008B501210420FFF764
:1032C0006BFF4FF40070ADF8000010208DF8030084
:1032D00002208DF8020069460148FEF790FD08BD06
:1032E0000008014070B5054605F10C00FDF7CCF86B
:1032F00008B1012400E00024204670BD70B50446EA
:10330000E18904F10C00FDF78DF8E189884201DACA
:10331000012500E00025284670BD000010B50446D8
:1033200000BF0548008800F040000028F9D0214681
:10333000014800F0ACFA10BD004400402DE9F04116
:1033400007460D461446DFF85480A8F10700A0F8A0
:103350000570A0F80140C078401CA8F10701C870B2
:10336000002605E015F8010B08F8010B701CC6B229
:10337000A642F7DB05210948C01F00F087FB04F1D6
:103380000900C6B231460548C01F00F067FB314650
:103390000248C01F00F07FFABDE8F081382000200D
:1033A00010B50A49B1F90000FDF7AEFC0849086004
:1033B0000649B1F90200FDF7A7FC0549486003483A
:1033C000406888600148007A087310BDEC21002035
:1033D000F821002010B500F001F810BD0CB5002058
:1033E000019000903348006840F480303149086013
:1033F00000BF3048006800F4003000900198401C85
:103400000190009818B90198B0F5A06FF1D1294842
:10341000006800F4003010B10120009001E00020AD
:1034200000900098012843D12348006840F0100024
:10343000214908600846006820F00300086008463B
:10344000006840F0020008601A4840681949486066
:103450000846406848600846406840F4806048601C
:103460000846406820F47C1048600846406840F4F4
:10347000E81048600846006840F08070086000BFAF
:103480000C48006800F000700028F9D00948406836
:1034900020F00300074948600846406840F00200F9
:1034A000486000BF0348406800F00C000828F9D1CC
:1034B0000CBD0000001002400020024010B513486F
:1034C000006840F001001149086008464068104952
:1034D00008400E494860084600680E4908400B49FC
:1034E00008600846006820F48020086008464068AC
:1034F00020F4FE0048604FF41F008860FFF76AFF69
:103500004FF000600449086010BD00000010024048
:103510000000FFF8FFFFF6FE08ED00E001877047AE
:103520002DE9F04107460E46154605F0020080B928
:1035300005F0010030B1314607F12800FDF78DF8A4
:10354000044615E0314607F12800FDF799F80446D6
:103550000EE0BC6A05F0010018B104EA0600B042B2
:1035600005D105F0010018B904EA060000B90024ED
:103570002046BDE8F081000030B5024600230D4C26
:10358000606C03E00469091B0346C06810B104695C
:103590008C42F7D911619360D06020B1046915693C
:1035A000641B046182600BB1DA6001E0014C62646B
:1035B00030BD0000D0200020C16811B1D0E9021256
:1035C0009160024AC168516470470000D020002019
:1035D00010B53448008800F0080020B13149091DB9
:1035E0000988C8B200BF40F225512E4800F08EF87D
:1035F000002856D040F225512A4800F05BF82948AF
:1036000000F040F9C4B22848008800F400400028C7
:1036100047D12548008800F4804098B9A52C40D1B6
:103620002148008840F480401F49088008460088EF
:10363000C0F30D001D490C541B480088401C1A495A
:1036400008802EE018480088C0F30D0017490C547C
:1036500015480088401C1449088008460088C0F3BB
:103660000D00032805D11148407840EA0420104994
:1036700008800D480088C0F30D010D48008809300E
:10368000814205D10848008840F40040064908807E
:1036900005480088C0F30D00312802DD00200249F2
:1036A000088010BD00440040162000209C2100200E
:1036B0001820002010B50022002340F66A14A14211
:1036C00000D100BF0A1201249440A3B2DC4304805D
:1036D00010BD10B502460020108A4FF2FF031840BB
:1036E0000B884C8823438C882343CC88234318437E
:1036F000108210BD21B1828942F40052828104E01F
:1037000082894DF6FF731A408281704770B5024678
:10371000002400230025002040F66A16B14200D1A3
:1037200000BFC1F3421501F01F03012606FA03F39F
:10373000012D02D19689334006E0022D02D1168A6E
:10374000334001E0968A33400C12012606FA04F455
:103750001688344013B10CB1012000E0002070BD88
:10376000F0B50346002400260025002040F66A1725
:10377000B94200D100BF1846C1F3421401F01F0640
:10378000012707FA06F5012C01D10C3004E0022CC8
:1037900001D1103000E014301AB107682F430760E0
:1037A00002E00768AF430760F0BD00002DE9F04775
:1037B00086B005460E460024A24600BFA14600275B
:1037C000B08900B100BF2F462C8A4CF6FF70044030
:1037D000F08804432C82AC894EF6F3100440B08884
:1037E00031890843718908430443AC81AC8A4FF6A0
:1037F000FF400440B0890443AC8201A8FFF7DCFC21
:103800001F48874202D1DDF810A001E0DDF80CA0CE
:10381000A88900F4004040B10AEBCA0000EB0A108E
:1038200031684900B0FBF1F807E00AEBCA0000EB91
:103830000A1031688900B0FBF1F86420B8FBF0F0A1
:1038400004012009642101FB1089A88900F40040CB
:1038500040B1322000EBC900B0FBF1F000F00700EE
:10386000044308E0322000EB09106421B0FBF1F0C2
:1038700000F00F0004432C8106B0BDE8F087000083
:103880000038014001468888C0F308007047C1F342
:103890000802828070472DE9F04104460D4600265B
:1038A00006E014F8017B3846FFF738FD701CC6B2FD
:1038B000AE42F6DBBDE8F08110B501210848FDF706
:1038C00049FF58B107480088401C064908801E205F
:1038D000FFF71CF801210248FDF748FE10BD00006B
:1038E000006400400622002010B502210848FDF7C0
:1038F00031FF58B102210648FDF738FE054A002184
:103900000348FEF74AF80348FEF7C0F810BD000070
:103910000064004074210020490050EAC12018BF13
:1039200004204A0D18BF40F0010040F2FF72B2EBD4
:10393000515F08BF40F00200012808BF0520704712
:103940002DE9F0414F1E00EBC7010446D1E900010B
:1039500015461E4637F006020DD02A463346FDF7BF
:10396000F2F87F1E04EBC703D3E90023FDF744F808
:1039700037F00602F1D1022F25D0042F13D0062FE5
:1039800018BFBDE8F0812A463346FDF7DCF8D4E9DC
:103990000A23FDF731F82A463346FDF7D4F8D4E977
:1039A0000823FDF729F82A463346FDF7CCF8D4E979
:1039B0000623FDF721F82A463346FDF7C4F8D4E97B
:1039C0000423FDF719F82A463346FDF7BCF8D4E97D
:1039D0000223FDF711F82A463346FDF7B4F8D4E97F
:1039E0000023BDE8F041FDF707B8000000221346B0
:1039F00010460149FDF719B90000F03F0122FDF71B
:103A000004BBFCF7F9BF0022134610461146FDF730
:103A10000CB940F2013200204FF0E041FDF7F5BA59
:103A2000024A00201107FDF7F0BA000001FDFFFF78
:103A300002E008C8121F08C1002AFAD17047704777
:103A4000002001E001C1121F002AFBD170470000D5
:103A50000149086070470000CC20002070B5054681
:103A60000C4600260DB1022C00D870BDA11E0648E0
:103A70000288284600F05EFC0646A01E2E54310A3D
:103A8000601E295400BFF0E75020002070B50546A5
:103A90000C4600260DB1022C00DC70BD601E81B208
:103AA000FF22284600F060FC0646601E2E5400BF30
:103AB000F3E700002DE9F04D8D4F21F0004A86B06C
:103AC00005460C46BA452ADBAAEB070028430AD074
:103AD0008848824501DC1AD1CDB106B02846BDE840
:103AE000F04DFFF78BBF844A844B2846FDF72BF837
:103AF00007460E46824A834B28462146FDF723F8A7
:103B000006B03A463346BDE8F04DFCF775BF0120DC
:103B1000FFF79EFF06B0BDE8F04DFFF774BF7A488F
:103B2000824542DABAF1795F0BDA2846FFF7F4FEF4
:103B3000042808BFFFF774FF284606B02146BDE8F9
:103B4000F08D2A460B461046FCF7FDFF83460246E1
:103B50006E480E460B4606217844FFF7F1FE5A46A2
:103B60003346FCF7F0FF804669488A465A4633469A
:103B700004217844FFF7E4FE5A463346FCF7E3FF9E
:103B800000223B46FCF738FF02460B4640465146B2
:103B9000FDF74BF82A462346FCF7D5FF06B02A4628
:103BA0002346BDE8F04DFCF727BF284624F000412E
:103BB00000223D463B46FCF7C3FF4FF0FF32FDF7C6
:103BC00024FA0646024653480F460B46062178441F
:103BD000FFF7B6FE32463B46FCF7B5FFCDE90001E4
:103BE0004D4832463B4604217844FFF7A9FE324651
:103BF0003B46FCF7A8FF00222B46FCF7FDFE834660
:103C000002913046394602F093FB804643480D4608
:103C1000504517DCDDE900015A46029BFDF705F827
:103C200042462B46FCF78FFF42462B46FCF7E4FE4C
:103C30000122FDF7EAF9304A304BFCF77EFF304AAB
:103C4000304B4CE04FF0000A52460B464046FCF722
:103C5000D3FECDE9031052462B4610461946FCF719
:103C600072FF32463B46FCF76BFFDDE90332FCF79F
:103C7000DCFF06460F46DDE900015A46029BFCF7D1
:103C8000D4FF83460091012230463946FDF7BDF945
:103C9000194A1A4BFCF754FF06460F4601224046CC
:103CA0002946FDF7B2F95A46009BFCF74CFF324615
:103CB0003B46FCF742FF06460F4601225046294686
:103CC000FDF7A3F90E4DDFF858802A464346FCF76E
:103CD00037FF32463B46FCF733FF2A464346FCF7A4
:103CE0002FFF002CD8BF81F0004106B0BDE8F08D59
:103CF0000000F03F0000F07F075C143326A6913CE3
:103D0000182D4454FB21F93F0000E03F84390000A6
:103D10009A3900000E390000243900003333EF3F98
:103D2000FB21E93F2DE9F84F04460D4621F0004004
:103D300000917349814211DC7249884201DC06D14D
:103D40002CB120462946BDE8F84FFFF757BE6E4814
:103D5000002DCCBF6D496E49BDE8F88F6D49814299
:103D600011DD6D498142D8BF4FF0FF366DDD204631
:103D70002946FFF7D1FD042808BFFFF751FE204672
:103D80002946BDE8F88F6549654F25F00045814219
:103D900033DD6449814219DD002632464FF080430D
:103DA00020462946FCF728FE80468A460122204606
:103DB0002946FDF72AF900223B46FCF7BEFE4246A3
:103DC0005346FCF732FF04460D463EE00126002232
:103DD000BA463B4620462946FCF70EFE80460F4673
:103DE0000022534620462946FCF7A7FE42463B46A2
:103DF000FCF71BFF04460D4627E04B4981421BDDC3
:103E0000DFF828A102260022534620462946FCF767
:103E10009AFE00223B46FCF7EFFD80460F4600224B
:103E2000534620462946FCF788FE42463B46FCF7AF
:103E3000FCFE04460D4608E0032622462B460020E1
:103E40003B49FCF7F2FE04460D4622462B4610463F
:103E50001946FCF778FE8B46824602460B46FCF775
:103E600072FE07460246334888460B4606217844D0
:103E7000FFF766FD52465B46FCF765FE82462E481C
:103E80008B463A46434605217844FFF759FD3A46AA
:103E90004346FCF758FE02460B46002E5046594654
:103EA0000CDAFCF7A9FD22462B46FCF74CFE01B0CC
:103EB00022462B46BDE8F04FFCF742BEFCF79CFDC6
:103EC00022462B46FCF73FFE1C4A7A4402EBC6030F
:103ED000D3E90023FCF731FE22462B46FCF72DFEEA
:103EE000174A7A4402EBC603D3E90023FCF728FE05
:103EF000009A002AB8BF81F00041BDE8F88F0000A9
:103F0000000010440000F07F182D4454FB21F93FBD
:103F1000FB21F9BF0000DC3F0000203E0000F33F22
:103F20000000F03F0000E63F008003400000F83F43
:103F30000000F0BFAE3700006C3700000A37000009
:103F4000D23600002DE9F04D9446CCF1000423F068
:103F500000464CEA0404524F46EAD4749A46884616
:103F600021F00042BC4206D8454240EA050442EA3C
:103F7000D474BC4204D9BDE8F04D6246FFF741BDA0
:103F8000AAF14055A5F17F6555EA0C040BD0022437
:103F900004EAAA74434DDFF810E144EAD87452EA07
:103FA000000B04D00CE0BDE8F04DFFF7BBBE002CC9
:103FB00014BF012CBDE8F08D022C30D0032C32D080
:103FC00056EA0C0B0AD0BE4220D1BA4209D126F0E3
:103FD000804622F080423346114617E000291ADB62
:103FE00025E0DFF8C8B0FB44002C04BFDBE900018A
:103FF000BDE8F08D012C02BFDBE9000181F000413A
:10400000BDE8F08D022C0AD0032C0CD0BA4212D19C
:10401000B8F1000F0BDA23482549BDE8F08D28469A
:104020002449BDE8F08D28467146BDE8F08D1D4855
:104030002149BDE8F08D921B12153C2AC4BF1948D6
:104040001D490EDCBAF1000FBEBF12F13C0F00207B
:10405000014606DB6246FCF7E8FD21F00041FFF770
:1040600061FE002C08BFBDE8F08D012C04BF81F07B
:104070000041BDE8F08D114A114B022C07D0FCF72E
:104080005CFD2A46BDE8F04D0A4BFCF756BDFCF737
:1040900054FD2A46BDE8F04D064BFCF751BD00002B
:1040A0000000F07F182D4454FB2109C06636000043
:1040B000FB21F9BFFB210940FB21F93F075C1433C9
:1040C00026A6A13C2DE9F0410446E07800F0C006A8
:1040D000E07800F03F05607800F0010098B1EF1043
:1040E0002846E91705EB5171C910A5EBC101491C20
:1040F00001F0FF080B48006820B10A4841460268F9
:104100003846904700BF607800F0080030B105489D
:10411000406818B1B011034A516888470020BDE8D3
:10412000F08100009C220020002107E042F6E061BF
:1041300000BF0A1EA1F1010399B2FAD1021EA0F13B
:10414000010398B2F2D17047002106E00A2100BFB6
:104150000A1EA1F1010399B2FAD1021EA0F10103D6
:1041600098B2F3D1704700002DE9F04F8DB00746AB
:10417000884615469946DDE9166B002400203080FC
:104180006B49887B5A4605A900F054FB18B1601EA4
:104190000DB0BDE8F08F6648807A00F0140000286A
:1041A00067D09DF8140000069DF8151040EA014004
:1041B0009DF8161040EA01209DF81710084328606A
:1041C0009DF8180000069DF8191040EA01409DF87E
:1041D0001A1040EA01209DF81B10084368609DF802
:1041E0001C0000069DF81D1040EA01409DF81E10BD
:1041F00040EA01209DF81F100843A8609DF82000A8
:1042000000069DF8211040EA01409DF8221040EA86
:1042100001209DF823100843E86004F11000C4B2A7
:10422000286800140190686800140290A8680014BF
:104230000390E8680014049001984043029901FB40
:104240000100039901FB0100049901FB010ABAF185
:10425000706F02DBBAF1885F05DD00F04BFB0020D8
:104260003080401E94E7B6F9000040F48070308042
:1042700000BF2F48807A00F0400020B305A9601CE1
:10428000085C095D40EA012000B2A8F8000005A919
:10429000E01C095C05AAA01C105C41EA002000B2E9
:1042A000A8F8020005A9601D095C201D105C41EA08
:1042B000002000B2A8F80400A01DC4B2B6F90000A6
:1042C00040F0080030801A48408900F4C07008B3FC
:1042D00005A9601C085C095D40EA012000B2388035
:1042E00005A9E01C095C05AAA01C105C41EA00209D
:1042F00000B2788005A9601D095C201D105C41EAB0
:10430000002000B2B880A01DC4B2B6F9000040F091
:10431000700030800648807A00F0030018B105A9CB
:104320000819FFF7CFFE484600F070F900202FE78C
:104330009C22002030B5034613B94FF6FF7030BD04
:1043400009E013F8014B82EA0400C0B2054D35F8CC
:10435000100080EA2222081EA1F10101F1D11046CD
:10436000EDE700002A72000830B5034605E013F8B7
:10437000010B80EA02040448025D081EA1F1010558
:10438000A9B2F4D1104630BD297100082DE9F05FC3
:1043900005460F4690469A4600BF00BF2E4636B1EE
:1043A0003078082803D117B1BAF1000F08D06FF0A8
:1043B00003013046FDF7FAFC6FF00300BDE8F09F03
:1043C0003046FEF7D2FC0446CCB104F10C0138466D
:1043D000726AFCF725FAB8F1000F02D0E07888F88D
:1043E0000000E66000BF00BFA346584600F096FEFE
:1043F00039463046FDF7E6FC4FF0000905E0394646
:104400003046FDF7DBFC6FF002094846D6E72DE9A0
:10441000F05F06460F4691469A4600BF00BF3546FC
:1044200035B12878082803D117B1BAF1000F08D0A8
:104430006FF003012846FDF7B9FC6FF00300BDE8FB
:10444000F09F05F10C0000F00AFD0446D4B1394696
:1044500004F10C006A6AFCF7E3F9072020700020E1
:10446000A07084F803906760A56000BF00BFA346FA
:10447000584600F053FE39462846FDF79BFC4FF0A6
:10448000000805E039462846FDF797FC6FF0020862
:104490004046D4E72DE9F041054600BF00BF2C4659
:1044A00014B12078052808D06FF003012046FDF7ED
:1044B00092FC6FF00300BDE8F0812046FEF71EFF7E
:1044C00058B100BF00BF2746384600F027FEA1893B
:1044D0002046FDF784FC002606E06FF01001204620
:1044E000FDF779FC6FF002063046E4E770B50B4843
:1044F000B0F854605630FCF76BF858B131460748B5
:104500005A30FCF742F805460448C06D50F8254083
:1045100000BF00E00024204670BD0000D020002035
:104520002DE9F04106460C48B0F854703946563033
:10453000FCF71CF8B8420BDA394607485830FCF74C
:1045400024F804460448C06D40F82460012500E0CA
:1045500000252846BDE8F081D02000202DE9F0415B
:10456000044625462068286020792871B5F8017036
:10457000B4F8056004F10708092E3DD2DFE806F023
:104580003C050B191220272E35003A4641461C489F
:10459000FCF746F931E03A46414619480830FCF745
:1045A0003FF92AE03A46414615480F30FCF738F902
:1045B00023E03A46414612480930FCF731F91CE045
:1045C0003A4641460E482330FCF72AF915E03A46B0
:1045D00041460B482530FCF723F90EE03A464146A8
:1045E00007482630FCF71CF907E03A4641460448E4
:1045F0002830FCF715F900E000BF00BFBDE8F081EE
:104600001A220020FEF7DAF800BFFEE7704700002C
:104610002DE9F04F99B004460D4616464FF07E57EF
:104620004FF000084FF000094FF0000A12A813A93C
:1046300018AB0EAACDE9001014A916A8FFF794FD37
:1046400018B1012019B0BDE8F08FBDF84C0000F49E
:10465000807000287ED00E98FCF756FB83464FF002
:104660009D41FCF78BF907460F98FCF74DFB8346FD
:104670004FF09D41FCF782F980461098FCF744FB0F
:1046800083464FF09D41FCF779F981461198FCF77C
:104690003BFB83464FF09D41FCF770F9824639465B
:1046A0004FF08040FCF738F949460590FCF734F9A3
:1046B000414607904FF04040FCF72EF951460590D7
:1046C000FCF72AF906900799FCF7CEF88346FCF729
:1046D00093FBCDE90801FFF7EDF94FF06632544B3B
:1046E000CDE90A01FCF72FFACDE90C01FCF797FBA5
:1046F000206049464FF08040FCF70EF94946029091
:10470000FCF70AF9414604904FF04040FCF704F9E9
:1047100041460290FCF700F903900499FCF7F6F883
:1047200083464FF07E51FCF79FF80590FCF764FB41
:10473000CDE9080139464FF08040FCF7EDF84146DD
:104740000390FCF7E9F8494604904FF08040FCF7ED
:10475000E3F800E068E051460390FCF7DDF883469B
:104760000499FCF781F80590FCF746FBCDE90601BA
:10477000DDE90823FFF7E6FB4FF066322C4BCDE96D
:104780000A01FCF7E0F9CDE90C01FCF748FB2860D1
:1047900051465046FCF7C0F8494604904846FCF79D
:1047A000BBF8414603904046FCF7B6F83946019005
:1047B0003846FCF7B1F800900199FCF755F80290E3
:1047C0000399FCF7A3F883460499FCF79FF805903A
:1047D000FCF712FBCDE9080151463846FCF79CF87E
:1047E000494604904046FCF797F803900499FCF77B
:1047F0003BF84FF080410590FCF78EF88346FCF7BC
:10480000FBFACDE90601DDE90823FFF79BFB4FF03A
:104810006632074BCDE90A01FCF795F9CDE90C01A9
:10482000FCF7FDFA306001E002200BE7002009E709
:1048300066A64C40F8B504460F4616462C4890F83C
:10484000240010B94FF0FF30F8BD2948807A10B924
:104850004FF0FF30F8E7264A1268917A244A5268EE
:1048600010786B460222FEF711FA10B14FF0FF30BC
:10487000EAE79DF801009DF8001040EA0125A542F5
:1048800003DA00203070401EDEE719484068408897
:10489000B5EB600F17DD164A1268517C144A526856
:1048A00010786B460122FEF7F1F910B14FF0FF309E
:1048B000CAE79DF8000000F0100020B100F01AF8DF
:1048C0006FF00100C0E7E2B2094B1B68D97A084BD0
:1048D0005B6818783B46FEF7D9F910B14FF0FF300E
:1048E000B2E795FBF4F0401E30700020ACE700000A
:1048F0006C20002008B57048807A10B94FF0FF3066
:1049000008BD002000906C4A1268D17B6A4A526848
:1049100010786B460122FEF7F3F910B14FF0FF302B
:10492000EEE7654A12685179634A526810786B461F
:104930000122FEF7E5F910B14FF0FF30E0E75E4AE3
:10494000126811795C4A526810786B460122FEF7B2
:10495000D7F910B14FF0FF30D2E7574890F8240054
:10496000002853D00C200090534A12681179524A03
:10497000526810786B460122FEF7C2F910B14FF071
:10498000FF30BDE73220FFF7CFFBC02000904A4840
:10499000807A00F0010020B19DF8000040F0200076
:1049A0000090454A12681179434A526810786B4664
:1049B0000122FEF7A5F910B14FF0FF30A0E73E4805
:1049C000407C10B10220009001E0002000903A4AA3
:1049D0001268D17B384A526810786B460122FEF784
:1049E0008FF910B14FF0FF308AE700200090324A73
:1049F00012685179304A526810786B460122FEF7EE
:104A00007FF9002855D04FF0FF3079E7042000905F
:104A1000294A12681179284A526810786B46012297
:104A2000FEF76EF910B14FF0FF3069E72248807C45
:104A300020B92148807A00F0010010B94020009090
:104A400001E0602000901C4A126811791A4A5268ED
:104A500010786B460122FEF753F910B14FF0FF308A
:104A60004EE73220FFF760FB1348407C10B1012075
:104A7000009001E0002000900F4A1268D17B0E4A9E
:104A8000526810786B460122FEF73AF910B14FF0E8
:104A9000FF3035E7084A12685179074A52681078A2
:104AA000054B10330122FEF72BF910B14FF0FF3008
:104AB00026E7002024E700006C20002070B50546A2
:104AC0002846FDF78FF9FDF700FE10B9FDF7C1FD8F
:104AD00038B16FF005010020FDF787F96FF005048C
:104AE00006E000BF2846DFF80CC000DF044600BF28
:104AF000204670BD7D63000810B500F0C5F8FDF7D5
:104B000049F9FDF7EAFD10B9FDF7AFFD30B16FF0DF
:104B10000500FDF73EF96FF0050405E000BFDFF882
:104B20000CC000DF044600BF204610BD956300089E
:104B300010B5FDF731F9FDF7D0FD10B9FDF795FD82
:104B400030B16FF00500FDF724F96FF0050405E0C2
:104B500000BFDFF80CC000DF044600BF204610BDD8
:104B6000F96500082DE9F04180460D4616461F46BE
:104B70003B46324629464046FDF719F9FDF7B5FD9B
:104B800010B9FDF77EFD38B13B4632462946404616
:104B9000FFF7FCFB044609E000BF3B4632462946CE
:104BA0004046DFF810C000DF044600BF2046BDE8E5
:104BB000F0810000E16600082DE9F04107460D464E
:104BC0001646324629463846FDF7F6F8FDF78DFDC4
:104BD00010B9FDF756FD30B16FF005010020FDF76B
:104BE000E5F8002408E000BF324629463846DFF8E1
:104BF00010C000DF044600BF2046BDE8F081000081
:104C0000216800082DE9F04180460D4616461F46F2
:104C10003B46324629464046FDF7D1F8FDF765FD93
:104C200010B9FDF72EFD38B13B46324629464046C5
:104C3000FFF7EDFB044609E000BF3B46324629463C
:104C40004046DFF810C000DF044600BF2046BDE844
:104C5000F0810000B5690008062809D2DFE800F0FD
:104C600008030405060704E003E002E001E000E0B9
:104C700000BF00BF00BFFEE700BFFEE70148007AAB
:104C800070470000D020002070472DE9F84F0446FF
:104C9000894690462CB1B9F1000F02D028F00300EC
:104CA00040B10023424649462046FDF777F80020F0
:104CB000BDE8F88F09F10807F81D20F00707082163
:104CC0002046FEF74DF8054600BF2868A0EB050A10
:104CD000686820F00300AAEB000ABA4500D30BE095
:104CE0002D6828680028F0D1002342464946204616
:104CF000FDF754F80020DBE700BF00BF00BF201D18
:104D000061683944616000BF00BF2068A0F1080BF2
:104D100059462046FEF724F8064600BF00BF6168EA
:104D20007068814203D900BF00BF60687060686826
:104D300040B947EA0800686008212846FEF710F8E5
:104D4000009011E0686820F003012846FEF708F89B
:104D500006462868306047EA080070602E60082127
:104D60003046FDF7FDFF0090424649462046009B35
:104D7000FDF714F800989BE72DE9F04105460F4632
:104D800005B13FB9002239462846FDF70BF800204F
:104D9000BDE8F08100213846FDF7E2FF8046A8F12A
:104DA0000808002608212846FDF7DAFF044609E036
:104DB0002646246834B9002239462846FCF7F2FF1B
:104DC0000020E5E74445F3D100BF00BF281D696816
:104DD000626822F00302891A696016B900206060D7
:104DE00001E020683060012239462846FCF7DAFFEE
:104DF0000120CDE72DE9F04104460D463CB104F019
:104E0000070020B905F0070008B9182D07D20022C5
:104E100029462046FCF7C7FF0020BDE8F08100BF0F
:104E200000BF27463D601020786008212046FDF72E
:104E300097FF0646A5F108012046FDF791FF306077
:104E400000203168086010203168486000207060E0
:104E5000012229462046FCF7A6FF0120DDE770B5B8
:104E600004462CB900210846FCF799FF002070BDCC
:104E700004F11400FBF7CDF9054615B1201DFBF731
:104E800080F929462046FCF78AFF2846EFE770B5EF
:104E900004460D462CB1E068A84202D82069A84219
:104EA00008D86FF0030229462046FCF779FF6FF01F
:104EB000030070BD294604F11400FBF7B7F9201D6B
:104EC000FBF784F9002229462046FCF769FF002001
:104ED000EFE72DE9F04704460F4690461E4624B101
:104EE0001FB1B8F1000F00D016B90020BDE8F0875F
:104EF000276000206060C4F80880E660666107FBF8
:104F0000086020613346424639462046FCF749FF97
:104F1000354604E005EB0809C5F800904D46781EBB
:104F2000071EF7D128600120E0E72DE9F05F054674
:104F3000A878002840D0EC6829462046FDF755FFA8
:104F400000202870294604F10C00FFF7A0FFA0689C
:104F5000002870D0A068407893286CD104F10C0030
:104F6000FFF77DFF0646002E65D000BF00BFA346B9
:104F7000584600F077FA804600221146404600F07D
:104F80005FFB404600F0D0FA0746D7F80890494644
:104F900006F10C00626AFBF743FC0720307000202A
:104FA000B070387BF07031462046FDF7F8FE494678
:104FB0002046FCF700FF3EE0AC68D5F80490A068FE
:104FC00080B3A068407883282DD149462046FCF75D
:104FD000F2FE00BF00BFA346584600F043FA8046E9
:104FE00000221146404600F02BFB404600F09CFAA0
:104FF0000746D7F808A005F10C015046626AFBF796
:105000000FFCF86810B1E878F9680870514620463E
:10501000FCF7D8FE00202870294604F10C00FFF7A9
:1050200036FF08E0FFE749462046FCF7C4FE294664
:105030002046FDF7B4FEBDE8F09F2DE9F04106469D
:10504000344625E06769E07800F00800F8B10020F8
:10505000207600212046FCF7B8FEA068B8B100BF5A
:1050600000BFA046404600F0FDF90546002211466B
:10507000284600F0E5FAE560E86A606100202061FA
:10508000EC620120207601212046FCF79DFE3C4683
:10509000002CD7D1BDE8F08170B500BFFFF726FA2C
:1050A000044604B932E0207808282DD2DFE800F069
:1050B0002C042C0C2C141C2400BF00BF25461648C1
:1050C000016E2846884720E000BF00BF25461248F1
:1050D000416E2846884718E000BF00BF25460E48AD
:1050E000816E2846884710E000BF00BF25460A4869
:1050F000C16E2846884708E000BF00BF2546064825
:10510000016F2846884700E000BFC7E700BF0020C6
:1051100000F038F970BD0000D020002010B5044622
:105120002046FFF7FDF968B10948407A30B900BF61
:105130004FF080500749086000BF07E00121044894
:10514000817203E021460220FFF786FD10BD0000BA
:10515000D020002004ED00E070B50446A06898B1AE
:105160002046FEF7BFF878B100BF00BF26463046A4
:1051700000F078F9054600221146284600F060FA52
:10518000A1892046FCF725FE70BD00002DE9F04105
:1051900004460120607094F920700B4800BF064659
:1051A000B56801E02E46AD681DB195F92000B84202
:1051B000F8DCE660A560B46005B1EC602046FCF761
:1051C0001AFEBDE8F0810000EC20002010B5024678
:1051D0000B465C1C8CB90021154C206B01E001468C
:1051E00000690028FBD1D36151610024146109B129
:1051F0000A611BE00E4C226318E000210C4CE06AAF
:1052000003E0C4691B1B0146006910B1C4699C42DC
:10521000F7D9D3615161106109B10A6101E0044C11
:10522000E26218B1C469E41AC461426110BD0000B1
:10523000D0200020C169491CB1B9416919B9194987
:10524000096B81422CD1016911B1D0E9042151616E
:10525000416929B1D0E904121161002141611FE0C7
:10526000104902690A631BE0416919B90D49C96A0D
:10527000814215D1016941B10169C969C26911440D
:105280000269D161D0E904215161416929B1D0E9B4
:10529000041211610021416102E002490269CA62FF
:1052A00070470000D020002070B53548C46A04B9AA
:1052B00070BDE069401EE061E06900285ED100BF7A
:1052C0006078632824D008DC13280DD033280ED052
:1052D00043280FD0532837D113E073281FD08328D9
:1052E00024D0932830D128E0FCF77DFD2DE0FCF799
:1052F0007FFD2AE0204600F0E9F80546FCF748FD6E
:1053000023E0204600F0E2F80546FCF75CFD1CE0D7
:10531000204600F0DBF80546FCF75AFD15E0204674
:1053200000F0D4F80546FCF73FFD0EE0204600F003
:10533000CDF80546FCF73DFD07E0204600F0C6F835
:105340000546FCF73EFD00E000BF00BF204600F030
:10535000EBF8056829462046FCF74FFD204600F093
:10536000A8F8204600F0D4F8246914B1E0690028B8
:10537000A6D00CB1002060610148C46200BF97E76D
:10538000D02000202DE9F0410646FFF777FC0746C4
:1053900000F062F80446AEB91548456A022F24D1E0
:1053A000FCB1F5B195F9200094F9201088421CDD7C
:1053B000284600F07EF82046FFF7E8FE284600F079
:1053C00007F912E0022F0DD164B196F9200094F98B
:1053D0002010884206DD2046FFF7D8FE304600F058
:1053E000F7F802E0304600F093F8BDE8F0810000E5
:1053F000D020002010B50446002060702070A078F6
:1054000000F0020078B1A07800F0100030B1114A2D
:10541000216BD2F88400FFF73AFD04E00D4A216BBE
:10542000506FFFF7A9FCA07800F0010080B1094897
:10543000D0F8880030B10749D1F888002146FFF73D
:1054400026FD05E00349D1F880002146FFF794FCD2
:1054500010BD0000D02000200148406970470000C6
:10546000D02000200146886848B182688A6082683E
:105470001AB100BF00BF8268D1600022C2607047CD
:1054800030B5034601B930BD91F920401A4600BF3E
:1054900000BF906801E00246806818B190F9205082
:1054A000A542F8DACA608860916000B1C16000BFAF
:1054B000E9E7C16849B1D0E902129160816811B190
:1054C000D0E90221D1600021C16070470146084641
:1054D00000E0C06810B10278012AFAD0704770B5B8
:1054E00004466078332812D194F823202046616A5C
:1054F000FEF716F8054655B100222946204600F071
:105500009FF894F823102A46606AFCF770FC70BD7F
:1055100010B504460120607021460248FFF7B0FF35
:1055200010BD0000EC200020014691F8222020232D
:105530008A6B981870470000014948617047000065
:10554000D020002010B5FFF787FF044664B1216B1F
:10555000A06B884204D9206B00680449884203D0BC
:1055600021460120FFF778FB10BD0000A52E5AE26E
:1055700070B501251248806A60B912480021826D19
:10558000114801F0DDFB044600BF0D488462806ACB
:1055900000B900250B48406E78B10948806C60B9AD
:1055A00008480021C26D094801F0CAFB044600BF4B
:1055B00003488464806C00B90025284670BD000053
:1055C000D020002064760008794C000819570008A4
:1055D00010B504460220607003488461FFF7B2FFF3
:1055E0002046FCF709FC10BDD020002070B5054610
:1055F0000E46FFF743FB022801D0002070BDFFF7E5
:105600002BFF04460CB90020F8E70C48406A08B9A3
:105610000020F3E731462046FCF7E2FB6570314697
:105620002046FFF7D3FD05481C30FFF71BFF04465B
:105630002046FFF7CDFF0120E0E70000D02000204A
:105640002DE9F04106460C46154621463046FCF74A
:10565000D4FB3046FFF768FF07463C603046FFF753
:10566000E9FD1DB13046FFF78DFE02E03046FFF741
:105670004FFFBDE8F081000010B5FDF7BFFC2548E5
:10568000C068401C2349C8600846006D08B1086D19
:105690008047FFF709FE0020FFF774FE1D48006CED
:1056A000002835D01B48816B8069814205D019489C
:1056B00081698163016CC1632AE01648C06B18B12F
:1056C0001448C16B491EC1631248C06B00BB00BFC8
:1056D0001048007A02281BD10E48446AC4B194F9DC
:1056E0002010806B90F92000814211D12046FFF7F5
:1056F000E0FE0849886BFFF70BFF0649886BFCF753
:105700007AFB2046FFF764FF02488463016CC163A3
:1057100010BD0000D02000207CB5064611490A6E5D
:10572000486E0821FFF748FA054600BF0E48C564D9
:10573000C06C00B97CBD0D490B48016500BF0A492A
:105740004FF0FF330022C86C6946FFF70BFA04469E
:10575000002CF4D1DDE90001FCF750FBDDE900107D
:105760008847ECE764760008D020002071570008D5
:1057700070B51548446C04B970BD2069401E2061A5
:105780001CE02046FDF718FF0F4900231A46C86C9D
:1057900004F11801FFF736FA05461DB12146032032
:1057A000FFF75AFAE078012804D120466169FDF735
:1057B000E3FE01E0012060700348446C14B12069ED
:1057C0000028DED000BFD7E7D02000202DE9F04729
:1057D00005460E4631462846FCF7F8FAFCF78DFFE1
:1057E00010B9FCF75AFF30B32C46B14600BF00BFDA
:1057F00027462FB13878052802D1B9F1000F07D01C
:105800006FF003013846FCF7E6FA6FF0030010E092
:105810003846FDF767FD30B1B9893846FCF7D9FA4B
:105820004FF0000A04E03846FCF7D7FA6FF0020A9E
:105830005046804607E000BF31462846DFF80CC0DE
:1058400000DF804600BF4046BDE8F087DD6A000803
:105850002DE9F04107460D461646324629463846A0
:10586000FCF7BAFAFCF749FF10B9FCF716FF30B1A4
:105870006FF005010020FCF7AEFA002408E000BF3D
:10588000324629463846DFF810C000DF044600BF24
:105890002046BDE8F0810000616B000870B5054648
:1058A0002846FCF79BFAFCF728FF10B9FCF7F5FE39
:1058B00020B12846FEF7EEFD044606E000BF28466C
:1058C000DFF80CC000DF044600BF204670BD0000BA
:1058D000316C000870B504460D460CB9002070BD4F
:1058E000221D2946206800F011F8F8E7FCF77EFA3F
:1058F00000BFDFF814C000DF00BF4FF0FF31002011
:10590000FCF773FA00BFFEE7AD6C00082DE9F0412B
:1059100007460D461646324629463846FCF76AFACF
:10592000FCF7F3FE10B9FCF7C4FE30B16FF00501CF
:105930000020FCF75AFA002408E000BF324629464E
:105940003846DFF810C000DF044600BF2046BDE83F
:10595000F0810000416D00082DE9F04D1D460C4618
:1059600098B0174621F0004123F00043002814BFEF
:105970004FF0010C4FF0000C0CEB440CFE4A0CEB0A
:1059800002064FEA620C66452BD33E0018BF012683
:1059900006EB45061644F94A964222D3F84A53EAE2
:1059A000070C02D0944205D148B918B00020114626
:1059B000BDE8F08D002808BF4FF0000C01D04FF07B
:1059C000010C0CEB440212F5001F0AD8002F14BF83
:1059D0004FF0010C4FF0000C0CEB450212F5001FCC
:1059E00007D918B03A462B462146BDE8F04DFEF7E0
:1059F00008B80022DFF88CA3002CB8BF534526DA84
:105A0000DFF884C36345A8BF022220DADFF870C341
:105A10009C451CDCDFF874C30CEB235CBCF1140F59
:105A200008DDCCF1340627FA06FC0CFA06F6BE4275
:105A30000DD108E05FB9CCF1140623FA06FC0CFA8C
:105A400006F69E4203D10CF00102C2F1020251EAB5
:105A5000000C19D1002D17DA002C18BF022A01D032
:105A6000012A07D00220FDF7F3FF18B0BDE8F04D82
:105A7000FDF7BCBF0220FDF7EBFFFDF7B7FF18B045
:105A800081F00041BDE8F08DB7F1000C6CD15345B9
:105A900025D104F1804212F5801201BF00280020B8
:105AA000B74918B008BFBDE8F08DB548884207DC9B
:105AB000002DA1BF6046294618B0BDE8F08D07E073
:105AC000281E05DA80F0004118B06046BDE8F08D70
:105AD000AF497944D1E9000118B0BDE8F08DDFF895
